{
  "_format": "hh-sol-artifact-1",
  "contractName": "ProfileToken",
  "sourceName": "contracts/ProfileToken.sol",
  "abi": [
    {
      "inputs": [],
      "stateMutability": "nonpayable",
      "type": "constructor"
    },
    {
      "anonymous": false,
      "inputs": [
        {
          "indexed": true,
          "internalType": "address",
          "name": "owner",
          "type": "address"
        },
        {
          "indexed": true,
          "internalType": "address",
          "name": "approved",
          "type": "address"
        },
        {
          "indexed": true,
          "internalType": "uint256",
          "name": "tokenId",
          "type": "uint256"
        }
      ],
      "name": "Approval",
      "type": "event"
    },
    {
      "anonymous": false,
      "inputs": [
        {
          "indexed": true,
          "internalType": "address",
          "name": "owner",
          "type": "address"
        },
        {
          "indexed": true,
          "internalType": "address",
          "name": "operator",
          "type": "address"
        },
        {
          "indexed": false,
          "internalType": "bool",
          "name": "approved",
          "type": "bool"
        }
      ],
      "name": "ApprovalForAll",
      "type": "event"
    },
    {
      "anonymous": false,
      "inputs": [
        {
          "indexed": false,
          "internalType": "uint256",
          "name": "tokenId",
          "type": "uint256"
        },
        {
          "indexed": false,
          "internalType": "address",
          "name": "owner",
          "type": "address"
        }
      ],
      "name": "NewProfile",
      "type": "event"
    },
    {
      "anonymous": false,
      "inputs": [
        {
          "indexed": true,
          "internalType": "address",
          "name": "previousOwner",
          "type": "address"
        },
        {
          "indexed": true,
          "internalType": "address",
          "name": "newOwner",
          "type": "address"
        }
      ],
      "name": "OwnershipTransferred",
      "type": "event"
    },
    {
      "anonymous": false,
      "inputs": [
        {
          "indexed": true,
          "internalType": "address",
          "name": "from",
          "type": "address"
        },
        {
          "indexed": true,
          "internalType": "address",
          "name": "to",
          "type": "address"
        },
        {
          "indexed": true,
          "internalType": "uint256",
          "name": "tokenId",
          "type": "uint256"
        }
      ],
      "name": "Transfer",
      "type": "event"
    },
    {
      "inputs": [],
      "name": "_tokenIds",
      "outputs": [
        {
          "internalType": "uint256",
          "name": "_value",
          "type": "uint256"
        }
      ],
      "stateMutability": "view",
      "type": "function"
    },
    {
      "inputs": [
        {
          "internalType": "address",
          "name": "to",
          "type": "address"
        },
        {
          "internalType": "uint256",
          "name": "tokenId",
          "type": "uint256"
        }
      ],
      "name": "approve",
      "outputs": [],
      "stateMutability": "nonpayable",
      "type": "function"
    },
    {
      "inputs": [
        {
          "internalType": "address",
          "name": "owner",
          "type": "address"
        }
      ],
      "name": "balanceOf",
      "outputs": [
        {
          "internalType": "uint256",
          "name": "",
          "type": "uint256"
        }
      ],
      "stateMutability": "view",
      "type": "function"
    },
    {
      "inputs": [
        {
          "internalType": "uint256",
          "name": "tokenId",
          "type": "uint256"
        }
      ],
      "name": "getApproved",
      "outputs": [
        {
          "internalType": "address",
          "name": "",
          "type": "address"
        }
      ],
      "stateMutability": "view",
      "type": "function"
    },
    {
      "inputs": [
        {
          "internalType": "address",
          "name": "owner",
          "type": "address"
        },
        {
          "internalType": "address",
          "name": "operator",
          "type": "address"
        }
      ],
      "name": "isApprovedForAll",
      "outputs": [
        {
          "internalType": "bool",
          "name": "",
          "type": "bool"
        }
      ],
      "stateMutability": "view",
      "type": "function"
    },
    {
      "inputs": [
        {
          "internalType": "address",
          "name": "to",
          "type": "address"
        }
      ],
      "name": "mint",
      "outputs": [
        {
          "internalType": "uint256",
          "name": "",
          "type": "uint256"
        }
      ],
      "stateMutability": "nonpayable",
      "type": "function"
    },
    {
      "inputs": [],
      "name": "name",
      "outputs": [
        {
          "internalType": "string",
          "name": "",
          "type": "string"
        }
      ],
      "stateMutability": "view",
      "type": "function"
    },
    {
      "inputs": [],
      "name": "owner",
      "outputs": [
        {
          "internalType": "address",
          "name": "",
          "type": "address"
        }
      ],
      "stateMutability": "view",
      "type": "function"
    },
    {
      "inputs": [
        {
          "internalType": "uint256",
          "name": "tokenId",
          "type": "uint256"
        }
      ],
      "name": "ownerOf",
      "outputs": [
        {
          "internalType": "address",
          "name": "",
          "type": "address"
        }
      ],
      "stateMutability": "view",
      "type": "function"
    },
    {
      "inputs": [],
      "name": "renounceOwnership",
      "outputs": [],
      "stateMutability": "nonpayable",
      "type": "function"
    },
    {
      "inputs": [
        {
          "internalType": "address",
          "name": "from",
          "type": "address"
        },
        {
          "internalType": "address",
          "name": "to",
          "type": "address"
        },
        {
          "internalType": "uint256",
          "name": "tokenId",
          "type": "uint256"
        }
      ],
      "name": "safeTransferFrom",
      "outputs": [],
      "stateMutability": "nonpayable",
      "type": "function"
    },
    {
      "inputs": [
        {
          "internalType": "address",
          "name": "from",
          "type": "address"
        },
        {
          "internalType": "address",
          "name": "to",
          "type": "address"
        },
        {
          "internalType": "uint256",
          "name": "tokenId",
          "type": "uint256"
        },
        {
          "internalType": "bytes",
          "name": "_data",
          "type": "bytes"
        }
      ],
      "name": "safeTransferFrom",
      "outputs": [],
      "stateMutability": "nonpayable",
      "type": "function"
    },
    {
      "inputs": [
        {
          "internalType": "address",
          "name": "operator",
          "type": "address"
        },
        {
          "internalType": "bool",
          "name": "approved",
          "type": "bool"
        }
      ],
      "name": "setApprovalForAll",
      "outputs": [],
      "stateMutability": "nonpayable",
      "type": "function"
    },
    {
      "inputs": [
        {
          "internalType": "bytes4",
          "name": "interfaceId",
          "type": "bytes4"
        }
      ],
      "name": "supportsInterface",
      "outputs": [
        {
          "internalType": "bool",
          "name": "",
          "type": "bool"
        }
      ],
      "stateMutability": "view",
      "type": "function"
    },
    {
      "inputs": [],
      "name": "symbol",
      "outputs": [
        {
          "internalType": "string",
          "name": "",
          "type": "string"
        }
      ],
      "stateMutability": "view",
      "type": "function"
    },
    {
      "inputs": [
        {
          "internalType": "uint256",
          "name": "tokenId",
          "type": "uint256"
        }
      ],
      "name": "tokenURI",
      "outputs": [
        {
          "internalType": "string",
          "name": "",
          "type": "string"
        }
      ],
      "stateMutability": "view",
      "type": "function"
    },
    {
      "inputs": [
        {
          "internalType": "address",
          "name": "from",
          "type": "address"
        },
        {
          "internalType": "address",
          "name": "to",
          "type": "address"
        },
        {
          "internalType": "uint256",
          "name": "tokenId",
          "type": "uint256"
        }
      ],
      "name": "transferFrom",
      "outputs": [],
      "stateMutability": "nonpayable",
      "type": "function"
    },
    {
      "inputs": [
        {
          "internalType": "address",
          "name": "newOwner",
          "type": "address"
        }
      ],
      "name": "transferOwnership",
      "outputs": [],
      "stateMutability": "nonpayable",
      "type": "function"
    }
  ],
  "bytecode": "0x60806040523480156200001157600080fd5b506040518060400160405280600c81526020017f4e69667479436f6e6e65637400000000000000000000000000000000000000008152506040518060400160405280600481526020017f4e46544300000000000000000000000000000000000000000000000000000000815250816000908051906020019062000096929190620001a6565b508060019080519060200190620000af929190620001a6565b505050620000d2620000c6620000d860201b60201c565b620000e060201b60201c565b620002bb565b600033905090565b6000600660009054906101000a900473ffffffffffffffffffffffffffffffffffffffff16905081600660006101000a81548173ffffffffffffffffffffffffffffffffffffffff021916908373ffffffffffffffffffffffffffffffffffffffff1602179055508173ffffffffffffffffffffffffffffffffffffffff168173ffffffffffffffffffffffffffffffffffffffff167f8be0079c531659141344cd1fd0a4f28419497f9722a3daafe3b4186f6b6457e060405160405180910390a35050565b828054620001b49062000256565b90600052602060002090601f016020900481019282620001d8576000855562000224565b82601f10620001f357805160ff191683800117855562000224565b8280016001018555821562000224579182015b828111156200022357825182559160200191906001019062000206565b5b50905062000233919062000237565b5090565b5b808211156200025257600081600090555060010162000238565b5090565b600060028204905060018216806200026f57607f821691505b602082108114156200028657620002856200028c565b5b50919050565b7f4e487b7100000000000000000000000000000000000000000000000000000000600052602260045260246000fd5b612bf180620002cb6000396000f3fe608060405234801561001057600080fd5b50600436106101165760003560e01c8063715018a6116100a2578063aa46a40011610071578063aa46a400146102df578063b88d4fde146102fd578063c87b56dd14610319578063e985e9c514610349578063f2fde38b1461037957610116565b8063715018a61461027d5780638da5cb5b1461028757806395d89b41146102a5578063a22cb465146102c357610116565b806323b872dd116100e957806323b872dd146101b557806342842e0e146101d15780636352211e146101ed5780636a6278421461021d57806370a082311461024d57610116565b806301ffc9a71461011b57806306fdde031461014b578063081812fc14610169578063095ea7b314610199575b600080fd5b61013560048036038101906101309190611d52565b610395565b6040516101429190612530565b60405180910390f35b610153610477565b604051610160919061254b565b60405180910390f35b610183600480360381019061017e9190611da4565b610509565b60405161019091906124c9565b60405180910390f35b6101b360048036038101906101ae9190611d16565b61058e565b005b6101cf60048036038101906101ca9190611c10565b6106a6565b005b6101eb60048036038101906101e69190611c10565b610706565b005b61020760048036038101906102029190611da4565b610726565b60405161021491906124c9565b60405180910390f35b61023760048036038101906102329190611bab565b6107d8565b604051610244919061278d565b60405180910390f35b61026760048036038101906102629190611bab565b6108e9565b604051610274919061278d565b60405180910390f35b6102856109a1565b005b61028f610a29565b60405161029c91906124c9565b60405180910390f35b6102ad610a53565b6040516102ba919061254b565b60405180910390f35b6102dd60048036038101906102d89190611cda565b610ae5565b005b6102e7610afb565b6040516102f4919061278d565b60405180910390f35b61031760048036038101906103129190611c5f565b610b07565b005b610333600480360381019061032e9190611da4565b610b69565b604051610340919061254b565b60405180910390f35b610363600480360381019061035e9190611bd4565b610c10565b6040516103709190612530565b60405180910390f35b610393600480360381019061038e9190611bab565b610ca4565b005b60007f80ac58cd000000000000000000000000000000000000000000000000000000007bffffffffffffffffffffffffffffffffffffffffffffffffffffffff1916827bffffffffffffffffffffffffffffffffffffffffffffffffffffffff1916148061046057507f5b5e139f000000000000000000000000000000000000000000000000000000007bffffffffffffffffffffffffffffffffffffffffffffffffffffffff1916827bffffffffffffffffffffffffffffffffffffffffffffffffffffffff1916145b80610470575061046f82610d9c565b5b9050919050565b606060008054610486906129e6565b80601f01602080910402602001604051908101604052809291908181526020018280546104b2906129e6565b80156104ff5780601f106104d4576101008083540402835291602001916104ff565b820191906000526020600020905b8154815290600101906020018083116104e257829003601f168201915b5050505050905090565b600061051482610e06565b610553576040517f08c379a000000000000000000000000000000000000000000000000000000000815260040161054a906126ad565b60405180910390fd5b6004600083815260200190815260200160002060009054906101000a900473ffffffffffffffffffffffffffffffffffffffff169050919050565b600061059982610726565b90508073ffffffffffffffffffffffffffffffffffffffff168373ffffffffffffffffffffffffffffffffffffffff16141561060a576040517f08c379a00000000000000000000000000000000000000000000000000000000081526004016106019061274d565b60405180910390fd5b8073ffffffffffffffffffffffffffffffffffffffff16610629610e72565b73ffffffffffffffffffffffffffffffffffffffff161480610658575061065781610652610e72565b610c10565b5b610697576040517f08c379a000000000000000000000000000000000000000000000000000000000815260040161068e9061262d565b60405180910390fd5b6106a18383610e7a565b505050565b6106b76106b1610e72565b82610f33565b6106f6576040517f08c379a00000000000000000000000000000000000000000000000000000000081526004016106ed9061276d565b60405180910390fd5b610701838383611011565b505050565b61072183838360405180602001604052806000815250610b07565b505050565b6000806002600084815260200190815260200160002060009054906101000a900473ffffffffffffffffffffffffffffffffffffffff169050600073ffffffffffffffffffffffffffffffffffffffff168173ffffffffffffffffffffffffffffffffffffffff1614156107cf576040517f08c379a00000000000000000000000000000000000000000000000000000000081526004016107c69061266d565b60405180910390fd5b80915050919050565b60006107e2610a29565b73ffffffffffffffffffffffffffffffffffffffff163373ffffffffffffffffffffffffffffffffffffffff16148061084657508173ffffffffffffffffffffffffffffffffffffffff163373ffffffffffffffffffffffffffffffffffffffff16145b610885576040517f08c379a000000000000000000000000000000000000000000000000000000000815260040161087c9061272d565b60405180910390fd5b6000610891600761126d565b905061089d838261127b565b7ff77721877cc609f5dfdedb32c3763b24fea3a928c62b5e2c5675cceb8f56c20c81846040516108ce9291906127a8565b60405180910390a16108e06007611299565b80915050919050565b60008073ffffffffffffffffffffffffffffffffffffffff168273ffffffffffffffffffffffffffffffffffffffff16141561095a576040517f08c379a00000000000000000000000000000000000000000000000000000000081526004016109519061264d565b60405180910390fd5b600360008373ffffffffffffffffffffffffffffffffffffffff1673ffffffffffffffffffffffffffffffffffffffff168152602001908152602001600020549050919050565b6109a9610e72565b73ffffffffffffffffffffffffffffffffffffffff166109c7610a29565b73ffffffffffffffffffffffffffffffffffffffff1614610a1d576040517f08c379a0000000000000000000000000000000000000000000000000000000008152600401610a14906126cd565b60405180910390fd5b610a2760006112af565b565b6000600660009054906101000a900473ffffffffffffffffffffffffffffffffffffffff16905090565b606060018054610a62906129e6565b80601f0160208091040260200160405190810160405280929190818152602001828054610a8e906129e6565b8015610adb5780601f10610ab057610100808354040283529160200191610adb565b820191906000526020600020905b815481529060010190602001808311610abe57829003601f168201915b5050505050905090565b610af7610af0610e72565b8383611375565b5050565b60078060000154905081565b610b18610b12610e72565b83610f33565b610b57576040517f08c379a0000000000000000000000000000000000000000000000000000000008152600401610b4e9061276d565b60405180910390fd5b610b63848484846114e2565b50505050565b6060610b7482610e06565b610bb3576040517f08c379a0000000000000000000000000000000000000000000000000000000008152600401610baa9061270d565b60405180910390fd5b6000610bbd61153e565b90506000815111610bdd5760405180602001604052806000815250610c08565b80610be784611555565b604051602001610bf89291906124a5565b6040516020818303038152906040525b915050919050565b6000600560008473ffffffffffffffffffffffffffffffffffffffff1673ffffffffffffffffffffffffffffffffffffffff16815260200190815260200160002060008373ffffffffffffffffffffffffffffffffffffffff1673ffffffffffffffffffffffffffffffffffffffff16815260200190815260200160002060009054906101000a900460ff16905092915050565b610cac610e72565b73ffffffffffffffffffffffffffffffffffffffff16610cca610a29565b73ffffffffffffffffffffffffffffffffffffffff1614610d20576040517f08c379a0000000000000000000000000000000000000000000000000000000008152600401610d17906126cd565b60405180910390fd5b600073ffffffffffffffffffffffffffffffffffffffff168173ffffffffffffffffffffffffffffffffffffffff161415610d90576040517f08c379a0000000000000000000000000000000000000000000000000000000008152600401610d879061258d565b60405180910390fd5b610d99816112af565b50565b60007f01ffc9a7000000000000000000000000000000000000000000000000000000007bffffffffffffffffffffffffffffffffffffffffffffffffffffffff1916827bffffffffffffffffffffffffffffffffffffffffffffffffffffffff1916149050919050565b60008073ffffffffffffffffffffffffffffffffffffffff166002600084815260200190815260200160002060009054906101000a900473ffffffffffffffffffffffffffffffffffffffff1673ffffffffffffffffffffffffffffffffffffffff1614159050919050565b600033905090565b816004600083815260200190815260200160002060006101000a81548173ffffffffffffffffffffffffffffffffffffffff021916908373ffffffffffffffffffffffffffffffffffffffff160217905550808273ffffffffffffffffffffffffffffffffffffffff16610eed83610726565b73ffffffffffffffffffffffffffffffffffffffff167f8c5be1e5ebec7d5bd14f71427d1e84f3dd0314c0f7b2291e5b200ac8c7c3b92560405160405180910390a45050565b6000610f3e82610e06565b610f7d576040517f08c379a0000000000000000000000000000000000000000000000000000000008152600401610f749061260d565b60405180910390fd5b6000610f8883610726565b90508073ffffffffffffffffffffffffffffffffffffffff168473ffffffffffffffffffffffffffffffffffffffff161480610ff757508373ffffffffffffffffffffffffffffffffffffffff16610fdf84610509565b73ffffffffffffffffffffffffffffffffffffffff16145b8061100857506110078185610c10565b5b91505092915050565b8273ffffffffffffffffffffffffffffffffffffffff1661103182610726565b73ffffffffffffffffffffffffffffffffffffffff1614611087576040517f08c379a000000000000000000000000000000000000000000000000000000000815260040161107e906126ed565b60405180910390fd5b600073ffffffffffffffffffffffffffffffffffffffff168273ffffffffffffffffffffffffffffffffffffffff1614156110f7576040517f08c379a00000000000000000000000000000000000000000000000000000000081526004016110ee906125cd565b60405180910390fd5b611102838383611702565b61110d600082610e7a565b6001600360008573ffffffffffffffffffffffffffffffffffffffff1673ffffffffffffffffffffffffffffffffffffffff168152602001908152602001600020600082825461115d91906128fc565b925050819055506001600360008473ffffffffffffffffffffffffffffffffffffffff1673ffffffffffffffffffffffffffffffffffffffff16815260200190815260200160002060008282546111b49190612875565b92505081905550816002600083815260200190815260200160002060006101000a81548173ffffffffffffffffffffffffffffffffffffffff021916908373ffffffffffffffffffffffffffffffffffffffff160217905550808273ffffffffffffffffffffffffffffffffffffffff168473ffffffffffffffffffffffffffffffffffffffff167fddf252ad1be2c89b69c2b068fc378daa952ba7f163c4a11628f55a4df523b3ef60405160405180910390a4505050565b600081600001549050919050565b611295828260405180602001604052806000815250611707565b5050565b6001816000016000828254019250508190555050565b6000600660009054906101000a900473ffffffffffffffffffffffffffffffffffffffff16905081600660006101000a81548173ffffffffffffffffffffffffffffffffffffffff021916908373ffffffffffffffffffffffffffffffffffffffff1602179055508173ffffffffffffffffffffffffffffffffffffffff168173ffffffffffffffffffffffffffffffffffffffff167f8be0079c531659141344cd1fd0a4f28419497f9722a3daafe3b4186f6b6457e060405160405180910390a35050565b8173ffffffffffffffffffffffffffffffffffffffff168373ffffffffffffffffffffffffffffffffffffffff1614156113e4576040517f08c379a00000000000000000000000000000000000000000000000000000000081526004016113db906125ed565b60405180910390fd5b80600560008573ffffffffffffffffffffffffffffffffffffffff1673ffffffffffffffffffffffffffffffffffffffff16815260200190815260200160002060008473ffffffffffffffffffffffffffffffffffffffff1673ffffffffffffffffffffffffffffffffffffffff16815260200190815260200160002060006101000a81548160ff0219169083151502179055508173ffffffffffffffffffffffffffffffffffffffff168373ffffffffffffffffffffffffffffffffffffffff167f17307eab39ab6107e8899845ad3d59bd9653f200f220920489ca2b5937696c31836040516114d59190612530565b60405180910390a3505050565b6114ed848484611011565b6114f984848484611762565b611538576040517f08c379a000000000000000000000000000000000000000000000000000000000815260040161152f9061256d565b60405180910390fd5b50505050565b606060405180602001604052806000815250905090565b6060600082141561159d576040518060400160405280600181526020017f300000000000000000000000000000000000000000000000000000000000000081525090506116fd565b600082905060005b600082146115cf5780806115b890612a18565b915050600a826115c891906128cb565b91506115a5565b60008167ffffffffffffffff811115611611577f4e487b7100000000000000000000000000000000000000000000000000000000600052604160045260246000fd5b6040519080825280601f01601f1916602001820160405280156116435781602001600182028036833780820191505090505b5090505b600085146116f65760018261165c91906128fc565b9150600a8561166b9190612a61565b60306116779190612875565b60f81b8183815181106116b3577f4e487b7100000000000000000000000000000000000000000000000000000000600052603260045260246000fd5b60200101907effffffffffffffffffffffffffffffffffffffffffffffffffffffffffffff1916908160001a905350600a856116ef91906128cb565b9450611647565b8093505050505b919050565b505050565b61171183836118f9565b61171e6000848484611762565b61175d576040517f08c379a00000000000000000000000000000000000000000000000000000000081526004016117549061256d565b60405180910390fd5b505050565b60006117838473ffffffffffffffffffffffffffffffffffffffff16611ac7565b156118ec578373ffffffffffffffffffffffffffffffffffffffff1663150b7a026117ac610e72565b8786866040518563ffffffff1660e01b81526004016117ce94939291906124e4565b602060405180830381600087803b1580156117e857600080fd5b505af192505050801561181957506040513d601f19601f820116820180604052508101906118169190611d7b565b60015b61189c573d8060008114611849576040519150601f19603f3d011682016040523d82523d6000602084013e61184e565b606091505b50600081511415611894576040517f08c379a000000000000000000000000000000000000000000000000000000000815260040161188b9061256d565b60405180910390fd5b805181602001fd5b63150b7a0260e01b7bffffffffffffffffffffffffffffffffffffffffffffffffffffffff1916817bffffffffffffffffffffffffffffffffffffffffffffffffffffffff1916149150506118f1565b600190505b949350505050565b600073ffffffffffffffffffffffffffffffffffffffff168273ffffffffffffffffffffffffffffffffffffffff161415611969576040517f08c379a00000000000000000000000000000000000000000000000000000000081526004016119609061268d565b60405180910390fd5b61197281610e06565b156119b2576040517f08c379a00000000000000000000000000000000000000000000000000000000081526004016119a9906125ad565b60405180910390fd5b6119be60008383611702565b6001600360008473ffffffffffffffffffffffffffffffffffffffff1673ffffffffffffffffffffffffffffffffffffffff1681526020019081526020016000206000828254611a0e9190612875565b92505081905550816002600083815260200190815260200160002060006101000a81548173ffffffffffffffffffffffffffffffffffffffff021916908373ffffffffffffffffffffffffffffffffffffffff160217905550808273ffffffffffffffffffffffffffffffffffffffff16600073ffffffffffffffffffffffffffffffffffffffff167fddf252ad1be2c89b69c2b068fc378daa952ba7f163c4a11628f55a4df523b3ef60405160405180910390a45050565b600080823b905060008111915050919050565b6000611aed611ae884612802565b6127d1565b905082815260208101848484011115611b0557600080fd5b611b108482856129a4565b509392505050565b600081359050611b2781612b5f565b92915050565b600081359050611b3c81612b76565b92915050565b600081359050611b5181612b8d565b92915050565b600081519050611b6681612b8d565b92915050565b600082601f830112611b7d57600080fd5b8135611b8d848260208601611ada565b91505092915050565b600081359050611ba581612ba4565b92915050565b600060208284031215611bbd57600080fd5b6000611bcb84828501611b18565b91505092915050565b60008060408385031215611be757600080fd5b6000611bf585828601611b18565b9250506020611c0685828601611b18565b9150509250929050565b600080600060608486031215611c2557600080fd5b6000611c3386828701611b18565b9350506020611c4486828701611b18565b9250506040611c5586828701611b96565b9150509250925092565b60008060008060808587031215611c7557600080fd5b6000611c8387828801611b18565b9450506020611c9487828801611b18565b9350506040611ca587828801611b96565b925050606085013567ffffffffffffffff811115611cc257600080fd5b611cce87828801611b6c565b91505092959194509250565b60008060408385031215611ced57600080fd5b6000611cfb85828601611b18565b9250506020611d0c85828601611b2d565b9150509250929050565b60008060408385031215611d2957600080fd5b6000611d3785828601611b18565b9250506020611d4885828601611b96565b9150509250929050565b600060208284031215611d6457600080fd5b6000611d7284828501611b42565b91505092915050565b600060208284031215611d8d57600080fd5b6000611d9b84828501611b57565b91505092915050565b600060208284031215611db657600080fd5b6000611dc484828501611b96565b91505092915050565b611dd681612930565b82525050565b611de581612942565b82525050565b6000611df682612832565b611e008185612848565b9350611e108185602086016129b3565b611e1981612b4e565b840191505092915050565b6000611e2f8261283d565b611e398185612859565b9350611e498185602086016129b3565b611e5281612b4e565b840191505092915050565b6000611e688261283d565b611e72818561286a565b9350611e828185602086016129b3565b80840191505092915050565b6000611e9b603283612859565b91507f4552433732313a207472616e7366657220746f206e6f6e20455243373231526560008301527f63656976657220696d706c656d656e74657200000000000000000000000000006020830152604082019050919050565b6000611f01602683612859565b91507f4f776e61626c653a206e6577206f776e657220697320746865207a65726f206160008301527f64647265737300000000000000000000000000000000000000000000000000006020830152604082019050919050565b6000611f67601c83612859565b91507f4552433732313a20746f6b656e20616c7265616479206d696e746564000000006000830152602082019050919050565b6000611fa7602483612859565b91507f4552433732313a207472616e7366657220746f20746865207a65726f2061646460008301527f72657373000000000000000000000000000000000000000000000000000000006020830152604082019050919050565b600061200d601983612859565b91507f4552433732313a20617070726f766520746f2063616c6c6572000000000000006000830152602082019050919050565b600061204d602c83612859565b91507f4552433732313a206f70657261746f7220717565727920666f72206e6f6e657860008301527f697374656e7420746f6b656e00000000000000000000000000000000000000006020830152604082019050919050565b60006120b3603883612859565b91507f4552433732313a20617070726f76652063616c6c6572206973206e6f74206f7760008301527f6e6572206e6f7220617070726f76656420666f7220616c6c00000000000000006020830152604082019050919050565b6000612119602a83612859565b91507f4552433732313a2062616c616e636520717565727920666f7220746865207a6560008301527f726f2061646472657373000000000000000000000000000000000000000000006020830152604082019050919050565b600061217f602983612859565b91507f4552433732313a206f776e657220717565727920666f72206e6f6e657869737460008301527f656e7420746f6b656e00000000000000000000000000000000000000000000006020830152604082019050919050565b60006121e5602083612859565b91507f4552433732313a206d696e7420746f20746865207a65726f20616464726573736000830152602082019050919050565b6000612225602c83612859565b91507f4552433732313a20617070726f76656420717565727920666f72206e6f6e657860008301527f697374656e7420746f6b656e00000000000000000000000000000000000000006020830152604082019050919050565b600061228b602083612859565b91507f4f776e61626c653a2063616c6c6572206973206e6f7420746865206f776e65726000830152602082019050919050565b60006122cb602983612859565b91507f4552433732313a207472616e73666572206f6620746f6b656e2074686174206960008301527f73206e6f74206f776e00000000000000000000000000000000000000000000006020830152604082019050919050565b6000612331602f83612859565b91507f4552433732314d657461646174613a2055524920717565727920666f72206e6f60008301527f6e6578697374656e7420746f6b656e00000000000000000000000000000000006020830152604082019050919050565b6000612397601083612859565b91507f6d696e74206e6f7420616c6c6f776564000000000000000000000000000000006000830152602082019050919050565b60006123d7602183612859565b91507f4552433732313a20617070726f76616c20746f2063757272656e74206f776e6560008301527f72000000000000000000000000000000000000000000000000000000000000006020830152604082019050919050565b600061243d603183612859565b91507f4552433732313a207472616e736665722063616c6c6572206973206e6f74206f60008301527f776e6572206e6f7220617070726f7665640000000000000000000000000000006020830152604082019050919050565b61249f8161299a565b82525050565b60006124b18285611e5d565b91506124bd8284611e5d565b91508190509392505050565b60006020820190506124de6000830184611dcd565b92915050565b60006080820190506124f96000830187611dcd565b6125066020830186611dcd565b6125136040830185612496565b81810360608301526125258184611deb565b905095945050505050565b60006020820190506125456000830184611ddc565b92915050565b600060208201905081810360008301526125658184611e24565b905092915050565b6000602082019050818103600083015261258681611e8e565b9050919050565b600060208201905081810360008301526125a681611ef4565b9050919050565b600060208201905081810360008301526125c681611f5a565b9050919050565b600060208201905081810360008301526125e681611f9a565b9050919050565b6000602082019050818103600083015261260681612000565b9050919050565b6000602082019050818103600083015261262681612040565b9050919050565b60006020820190508181036000830152612646816120a6565b9050919050565b600060208201905081810360008301526126668161210c565b9050919050565b6000602082019050818103600083015261268681612172565b9050919050565b600060208201905081810360008301526126a6816121d8565b9050919050565b600060208201905081810360008301526126c681612218565b9050919050565b600060208201905081810360008301526126e68161227e565b9050919050565b60006020820190508181036000830152612706816122be565b9050919050565b6000602082019050818103600083015261272681612324565b9050919050565b600060208201905081810360008301526127468161238a565b9050919050565b60006020820190508181036000830152612766816123ca565b9050919050565b6000602082019050818103600083015261278681612430565b9050919050565b60006020820190506127a26000830184612496565b92915050565b60006040820190506127bd6000830185612496565b6127ca6020830184611dcd565b9392505050565b6000604051905081810181811067ffffffffffffffff821117156127f8576127f7612b1f565b5b8060405250919050565b600067ffffffffffffffff82111561281d5761281c612b1f565b5b601f19601f8301169050602081019050919050565b600081519050919050565b600081519050919050565b600082825260208201905092915050565b600082825260208201905092915050565b600081905092915050565b60006128808261299a565b915061288b8361299a565b9250827fffffffffffffffffffffffffffffffffffffffffffffffffffffffffffffffff038211156128c0576128bf612a92565b5b828201905092915050565b60006128d68261299a565b91506128e18361299a565b9250826128f1576128f0612ac1565b5b828204905092915050565b60006129078261299a565b91506129128361299a565b92508282101561292557612924612a92565b5b828203905092915050565b600061293b8261297a565b9050919050565b60008115159050919050565b60007fffffffff0000000000000000000000000000000000000000000000000000000082169050919050565b600073ffffffffffffffffffffffffffffffffffffffff82169050919050565b6000819050919050565b82818337600083830152505050565b60005b838110156129d15780820151818401526020810190506129b6565b838111156129e0576000848401525b50505050565b600060028204905060018216806129fe57607f821691505b60208210811415612a1257612a11612af0565b5b50919050565b6000612a238261299a565b91507fffffffffffffffffffffffffffffffffffffffffffffffffffffffffffffffff821415612a5657612a55612a92565b5b600182019050919050565b6000612a6c8261299a565b9150612a778361299a565b925082612a8757612a86612ac1565b5b828206905092915050565b7f4e487b7100000000000000000000000000000000000000000000000000000000600052601160045260246000fd5b7f4e487b7100000000000000000000000000000000000000000000000000000000600052601260045260246000fd5b7f4e487b7100000000000000000000000000000000000000000000000000000000600052602260045260246000fd5b7f4e487b7100000000000000000000000000000000000000000000000000000000600052604160045260246000fd5b6000601f19601f8301169050919050565b612b6881612930565b8114612b7357600080fd5b50565b612b7f81612942565b8114612b8a57600080fd5b50565b612b968161294e565b8114612ba157600080fd5b50565b612bad8161299a565b8114612bb857600080fd5b5056fea2646970667358221220a5e124e53577f825605d80194961330ba5550f12497a1b8e6eb6738216d330d664736f6c63430008000033",
  "linkReferences": {},
  "deployedLinkReferences": {}
}