{
  "_format": "hh-sol-artifact-1",
  "contractName": "ProfileGraph",
  "sourceName": "contracts/ProfileGraph.sol",
  "abi": [
    {
      "anonymous": false,
      "inputs": [
        {
          "indexed": true,
          "internalType": "address",
          "name": "owner",
          "type": "address"
        },
        {
          "indexed": true,
          "internalType": "address",
          "name": "approved",
          "type": "address"
        },
        {
          "indexed": true,
          "internalType": "uint256",
          "name": "tokenId",
          "type": "uint256"
        }
      ],
      "name": "Approval",
      "type": "event"
    },
    {
      "anonymous": false,
      "inputs": [
        {
          "indexed": true,
          "internalType": "address",
          "name": "owner",
          "type": "address"
        },
        {
          "indexed": true,
          "internalType": "address",
          "name": "operator",
          "type": "address"
        },
        {
          "indexed": false,
          "internalType": "bool",
          "name": "approved",
          "type": "bool"
        }
      ],
      "name": "ApprovalForAll",
      "type": "event"
    },
    {
      "anonymous": false,
      "inputs": [
        {
          "indexed": true,
          "internalType": "uint256",
          "name": "follower",
          "type": "uint256"
        },
        {
          "indexed": true,
          "internalType": "uint256",
          "name": "followed",
          "type": "uint256"
        }
      ],
      "name": "Follow",
      "type": "event"
    },
    {
      "anonymous": false,
      "inputs": [
        {
          "indexed": false,
          "internalType": "uint256",
          "name": "tokenId",
          "type": "uint256"
        },
        {
          "indexed": false,
          "internalType": "address",
          "name": "owner",
          "type": "address"
        }
      ],
      "name": "NewProfile",
      "type": "event"
    },
    {
      "anonymous": false,
      "inputs": [
        {
          "indexed": true,
          "internalType": "address",
          "name": "previousOwner",
          "type": "address"
        },
        {
          "indexed": true,
          "internalType": "address",
          "name": "newOwner",
          "type": "address"
        }
      ],
      "name": "OwnershipTransferred",
      "type": "event"
    },
    {
      "anonymous": false,
      "inputs": [
        {
          "indexed": true,
          "internalType": "uint256",
          "name": "tokenId",
          "type": "uint256"
        },
        {
          "indexed": false,
          "internalType": "address",
          "name": "avatarContract",
          "type": "address"
        },
        {
          "indexed": false,
          "internalType": "uint256",
          "name": "avatarId",
          "type": "uint256"
        },
        {
          "indexed": false,
          "internalType": "string",
          "name": "avatarURI",
          "type": "string"
        }
      ],
      "name": "SetAvatar",
      "type": "event"
    },
    {
      "anonymous": false,
      "inputs": [
        {
          "indexed": true,
          "internalType": "address",
          "name": "from",
          "type": "address"
        },
        {
          "indexed": true,
          "internalType": "address",
          "name": "to",
          "type": "address"
        },
        {
          "indexed": true,
          "internalType": "uint256",
          "name": "tokenId",
          "type": "uint256"
        }
      ],
      "name": "Transfer",
      "type": "event"
    },
    {
      "anonymous": false,
      "inputs": [
        {
          "indexed": true,
          "internalType": "uint256",
          "name": "follower",
          "type": "uint256"
        },
        {
          "indexed": true,
          "internalType": "uint256",
          "name": "unfollowed",
          "type": "uint256"
        }
      ],
      "name": "Unfollow",
      "type": "event"
    },
    {
      "inputs": [],
      "name": "_tokenIds",
      "outputs": [
        {
          "internalType": "uint256",
          "name": "_value",
          "type": "uint256"
        }
      ],
      "stateMutability": "view",
      "type": "function"
    },
    {
      "inputs": [
        {
          "internalType": "address",
          "name": "to",
          "type": "address"
        },
        {
          "internalType": "uint256",
          "name": "tokenId",
          "type": "uint256"
        }
      ],
      "name": "approve",
      "outputs": [],
      "stateMutability": "nonpayable",
      "type": "function"
    },
    {
      "inputs": [
        {
          "internalType": "address",
          "name": "owner",
          "type": "address"
        }
      ],
      "name": "balanceOf",
      "outputs": [
        {
          "internalType": "uint256",
          "name": "",
          "type": "uint256"
        }
      ],
      "stateMutability": "view",
      "type": "function"
    },
    {
      "inputs": [
        {
          "internalType": "uint256",
          "name": "toFollow",
          "type": "uint256"
        },
        {
          "internalType": "uint256",
          "name": "byFollower",
          "type": "uint256"
        }
      ],
      "name": "follow",
      "outputs": [],
      "stateMutability": "nonpayable",
      "type": "function"
    },
    {
      "inputs": [
        {
          "internalType": "uint256",
          "name": "",
          "type": "uint256"
        },
        {
          "internalType": "uint256",
          "name": "",
          "type": "uint256"
        }
      ],
      "name": "followings",
      "outputs": [
        {
          "internalType": "bool",
          "name": "",
          "type": "bool"
        }
      ],
      "stateMutability": "view",
      "type": "function"
    },
    {
      "inputs": [
        {
          "internalType": "uint256",
          "name": "tokenId",
          "type": "uint256"
        }
      ],
      "name": "getApproved",
      "outputs": [
        {
          "internalType": "address",
          "name": "",
          "type": "address"
        }
      ],
      "stateMutability": "view",
      "type": "function"
    },
    {
      "inputs": [
        {
          "internalType": "address",
          "name": "owner",
          "type": "address"
        },
        {
          "internalType": "address",
          "name": "operator",
          "type": "address"
        }
      ],
      "name": "isApprovedForAll",
      "outputs": [
        {
          "internalType": "bool",
          "name": "",
          "type": "bool"
        }
      ],
      "stateMutability": "view",
      "type": "function"
    },
    {
      "inputs": [
        {
          "internalType": "address",
          "name": "to",
          "type": "address"
        }
      ],
      "name": "mint",
      "outputs": [
        {
          "internalType": "uint256",
          "name": "",
          "type": "uint256"
        }
      ],
      "stateMutability": "nonpayable",
      "type": "function"
    },
    {
      "inputs": [],
      "name": "name",
      "outputs": [
        {
          "internalType": "string",
          "name": "",
          "type": "string"
        }
      ],
      "stateMutability": "view",
      "type": "function"
    },
    {
      "inputs": [],
      "name": "owner",
      "outputs": [
        {
          "internalType": "address",
          "name": "",
          "type": "address"
        }
      ],
      "stateMutability": "view",
      "type": "function"
    },
    {
      "inputs": [
        {
          "internalType": "uint256",
          "name": "tokenId",
          "type": "uint256"
        }
      ],
      "name": "ownerOf",
      "outputs": [
        {
          "internalType": "address",
          "name": "",
          "type": "address"
        }
      ],
      "stateMutability": "view",
      "type": "function"
    },
    {
      "inputs": [],
      "name": "renounceOwnership",
      "outputs": [],
      "stateMutability": "nonpayable",
      "type": "function"
    },
    {
      "inputs": [
        {
          "internalType": "address",
          "name": "from",
          "type": "address"
        },
        {
          "internalType": "address",
          "name": "to",
          "type": "address"
        },
        {
          "internalType": "uint256",
          "name": "tokenId",
          "type": "uint256"
        }
      ],
      "name": "safeTransferFrom",
      "outputs": [],
      "stateMutability": "nonpayable",
      "type": "function"
    },
    {
      "inputs": [
        {
          "internalType": "address",
          "name": "from",
          "type": "address"
        },
        {
          "internalType": "address",
          "name": "to",
          "type": "address"
        },
        {
          "internalType": "uint256",
          "name": "tokenId",
          "type": "uint256"
        },
        {
          "internalType": "bytes",
          "name": "_data",
          "type": "bytes"
        }
      ],
      "name": "safeTransferFrom",
      "outputs": [],
      "stateMutability": "nonpayable",
      "type": "function"
    },
    {
      "inputs": [
        {
          "internalType": "address",
          "name": "operator",
          "type": "address"
        },
        {
          "internalType": "bool",
          "name": "approved",
          "type": "bool"
        }
      ],
      "name": "setApprovalForAll",
      "outputs": [],
      "stateMutability": "nonpayable",
      "type": "function"
    },
    {
      "inputs": [
        {
          "internalType": "address",
          "name": "avatarContractAddrs",
          "type": "address"
        },
        {
          "internalType": "uint256",
          "name": "avatarTokenId",
          "type": "uint256"
        },
        {
          "internalType": "uint256",
          "name": "niftyTokenId",
          "type": "uint256"
        }
      ],
      "name": "setAvatar",
      "outputs": [],
      "stateMutability": "nonpayable",
      "type": "function"
    },
    {
      "inputs": [
        {
          "internalType": "bytes4",
          "name": "interfaceId",
          "type": "bytes4"
        }
      ],
      "name": "supportsInterface",
      "outputs": [
        {
          "internalType": "bool",
          "name": "",
          "type": "bool"
        }
      ],
      "stateMutability": "view",
      "type": "function"
    },
    {
      "inputs": [],
      "name": "symbol",
      "outputs": [
        {
          "internalType": "string",
          "name": "",
          "type": "string"
        }
      ],
      "stateMutability": "view",
      "type": "function"
    },
    {
      "inputs": [
        {
          "internalType": "uint256",
          "name": "",
          "type": "uint256"
        }
      ],
      "name": "tokenURI",
      "outputs": [
        {
          "internalType": "string",
          "name": "",
          "type": "string"
        }
      ],
      "stateMutability": "view",
      "type": "function"
    },
    {
      "inputs": [
        {
          "internalType": "address",
          "name": "from",
          "type": "address"
        },
        {
          "internalType": "address",
          "name": "to",
          "type": "address"
        },
        {
          "internalType": "uint256",
          "name": "tokenId",
          "type": "uint256"
        }
      ],
      "name": "transferFrom",
      "outputs": [],
      "stateMutability": "nonpayable",
      "type": "function"
    },
    {
      "inputs": [
        {
          "internalType": "address",
          "name": "newOwner",
          "type": "address"
        }
      ],
      "name": "transferOwnership",
      "outputs": [],
      "stateMutability": "nonpayable",
      "type": "function"
    },
    {
      "inputs": [
        {
          "internalType": "uint256",
          "name": "toUnfollow",
          "type": "uint256"
        },
        {
          "internalType": "uint256",
          "name": "byFollower",
          "type": "uint256"
        }
      ],
      "name": "unfollow",
      "outputs": [],
      "stateMutability": "nonpayable",
      "type": "function"
    }
  ],
  "bytecode": "0x60806040523480156200001157600080fd5b506040518060400160405280600c81526020017f4e69667479436f6e6e65637400000000000000000000000000000000000000008152506040518060400160405280600481526020017f4e46544300000000000000000000000000000000000000000000000000000000815250816000908051906020019062000096929190620001a6565b508060019080519060200190620000af929190620001a6565b505050620000d2620000c6620000d860201b60201c565b620000e060201b60201c565b620002bb565b600033905090565b6000600660009054906101000a900473ffffffffffffffffffffffffffffffffffffffff16905081600660006101000a81548173ffffffffffffffffffffffffffffffffffffffff021916908373ffffffffffffffffffffffffffffffffffffffff1602179055508173ffffffffffffffffffffffffffffffffffffffff168173ffffffffffffffffffffffffffffffffffffffff167f8be0079c531659141344cd1fd0a4f28419497f9722a3daafe3b4186f6b6457e060405160405180910390a35050565b828054620001b49062000256565b90600052602060002090601f016020900481019282620001d8576000855562000224565b82601f10620001f357805160ff191683800117855562000224565b8280016001018555821562000224579182015b828111156200022357825182559160200191906001019062000206565b5b50905062000233919062000237565b5090565b5b808211156200025257600081600090555060010162000238565b5090565b600060028204905060018216806200026f57607f821691505b602082108114156200028657620002856200028c565b5b50919050565b7f4e487b7100000000000000000000000000000000000000000000000000000000600052602260045260246000fd5b6132d980620002cb6000396000f3fe608060405234801561001057600080fd5b50600436106101425760003560e01c8063821defc2116100b8578063b88d4fde1161007c578063b88d4fde14610361578063c87b56dd1461037d578063e985e9c5146103ad578063f2fde38b146103dd578063f407eb1a146103f9578063fb1bf05d1461042957610142565b8063821defc2146102cf5780638da5cb5b146102eb57806395d89b4114610309578063a22cb46514610327578063aa46a4001461034357610142565b806338bede6b1161010a57806338bede6b146101fd57806342842e0e146102195780636352211e146102355780636a6278421461026557806370a0823114610295578063715018a6146102c557610142565b806301ffc9a71461014757806306fdde0314610177578063081812fc14610195578063095ea7b3146101c557806323b872dd146101e1575b600080fd5b610161600480360381019061015c91906122cf565b610445565b60405161016e9190612c2d565b60405180910390f35b61017f610527565b60405161018c9190612c48565b60405180910390f35b6101af60048036038101906101aa9190612362565b6105b9565b6040516101bc9190612b88565b60405180910390f35b6101df60048036038101906101da9190612244565b61063e565b005b6101fb60048036038101906101f6919061213e565b610756565b005b61021760048036038101906102129190612280565b6107b6565b005b610233600480360381019061022e919061213e565b6109bf565b005b61024f600480360381019061024a9190612362565b6109df565b60405161025c9190612b88565b60405180910390f35b61027f600480360381019061027a91906120b0565b610a91565b60405161028c9190612f2a565b60405180910390f35b6102af60048036038101906102aa91906120b0565b610ba2565b6040516102bc9190612f2a565b60405180910390f35b6102cd610c5a565b005b6102e960048036038101906102e4919061238b565b610ce2565b005b6102f3610e84565b6040516103009190612b88565b60405180910390f35b610311610eae565b60405161031e9190612c48565b60405180910390f35b610341600480360381019061033c9190612208565b610f40565b005b61034b610f56565b6040516103589190612f2a565b60405180910390f35b61037b6004803603810190610376919061218d565b610f62565b005b61039760048036038101906103929190612362565b610fc4565b6040516103a49190612c48565b60405180910390f35b6103c760048036038101906103c29190612102565b61108b565b6040516103d49190612c2d565b60405180910390f35b6103f760048036038101906103f291906120b0565b61111f565b005b610413600480360381019061040e919061238b565b611217565b6040516104209190612c2d565b60405180910390f35b610443600480360381019061043e919061238b565b611246565b005b60007f80ac58cd000000000000000000000000000000000000000000000000000000007bffffffffffffffffffffffffffffffffffffffffffffffffffffffff1916827bffffffffffffffffffffffffffffffffffffffffffffffffffffffff1916148061051057507f5b5e139f000000000000000000000000000000000000000000000000000000007bffffffffffffffffffffffffffffffffffffffffffffffffffffffff1916827bffffffffffffffffffffffffffffffffffffffffffffffffffffffff1916145b80610520575061051f826113e8565b5b9050919050565b60606000805461053690613177565b80601f016020809104026020016040519081016040528092919081815260200182805461056290613177565b80156105af5780601f10610584576101008083540402835291602001916105af565b820191906000526020600020905b81548152906001019060200180831161059257829003601f168201915b5050505050905090565b60006105c482611452565b610603576040517f08c379a00000000000000000000000000000000000000000000000000000000081526004016105fa90612e0a565b60405180910390fd5b6004600083815260200190815260200160002060009054906101000a900473ffffffffffffffffffffffffffffffffffffffff169050919050565b6000610649826109df565b90508073ffffffffffffffffffffffffffffffffffffffff168373ffffffffffffffffffffffffffffffffffffffff1614156106ba576040517f08c379a00000000000000000000000000000000000000000000000000000000081526004016106b190612eaa565b60405180910390fd5b8073ffffffffffffffffffffffffffffffffffffffff166106d96114be565b73ffffffffffffffffffffffffffffffffffffffff1614806107085750610707816107026114be565b61108b565b5b610747576040517f08c379a000000000000000000000000000000000000000000000000000000000815260040161073e90612d8a565b60405180910390fd5b61075183836114c6565b505050565b6107676107616114be565b8261157f565b6107a6576040517f08c379a000000000000000000000000000000000000000000000000000000000815260040161079d90612eea565b60405180910390fd5b6107b183838361165d565b505050565b6107bf816109df565b73ffffffffffffffffffffffffffffffffffffffff163373ffffffffffffffffffffffffffffffffffffffff161461082c576040517f08c379a000000000000000000000000000000000000000000000000000000000815260040161082390612cea565b60405180910390fd5b60008390508073ffffffffffffffffffffffffffffffffffffffff16636352211e846040518263ffffffff1660e01b815260040161086a9190612f2a565b60206040518083038186803b15801561088257600080fd5b505afa158015610896573d6000803e3d6000fd5b505050506040513d601f19601f820116820180604052508101906108ba91906120d9565b73ffffffffffffffffffffffffffffffffffffffff163373ffffffffffffffffffffffffffffffffffffffff1614610927576040517f08c379a000000000000000000000000000000000000000000000000000000000815260040161091e90612eca565b60405180910390fd5b83600860000160006101000a81548173ffffffffffffffffffffffffffffffffffffffff021916908373ffffffffffffffffffffffffffffffffffffffff16021790555082600860010181905550817fbb6d66496ef33e31f1bd0f0e9c9f1e900e695aefc02615d2859e305190b8649285856109a286610fc4565b6040516109b193929190612bef565b60405180910390a250505050565b6109da83838360405180602001604052806000815250610f62565b505050565b6000806002600084815260200190815260200160002060009054906101000a900473ffffffffffffffffffffffffffffffffffffffff169050600073ffffffffffffffffffffffffffffffffffffffff168173ffffffffffffffffffffffffffffffffffffffff161415610a88576040517f08c379a0000000000000000000000000000000000000000000000000000000008152600401610a7f90612dca565b60405180910390fd5b80915050919050565b6000610a9b610e84565b73ffffffffffffffffffffffffffffffffffffffff163373ffffffffffffffffffffffffffffffffffffffff161480610aff57508173ffffffffffffffffffffffffffffffffffffffff163373ffffffffffffffffffffffffffffffffffffffff16145b610b3e576040517f08c379a0000000000000000000000000000000000000000000000000000000008152600401610b3590612e8a565b60405180910390fd5b6000610b4a60076118b9565b9050610b5683826118c7565b7ff77721877cc609f5dfdedb32c3763b24fea3a928c62b5e2c5675cceb8f56c20c8184604051610b87929190612f45565b60405180910390a1610b9960076118e5565b80915050919050565b60008073ffffffffffffffffffffffffffffffffffffffff168273ffffffffffffffffffffffffffffffffffffffff161415610c13576040517f08c379a0000000000000000000000000000000000000000000000000000000008152600401610c0a90612daa565b60405180910390fd5b600360008373ffffffffffffffffffffffffffffffffffffffff1673ffffffffffffffffffffffffffffffffffffffff168152602001908152602001600020549050919050565b610c626114be565b73ffffffffffffffffffffffffffffffffffffffff16610c80610e84565b73ffffffffffffffffffffffffffffffffffffffff1614610cd6576040517f08c379a0000000000000000000000000000000000000000000000000000000008152600401610ccd90612e2a565b60405180910390fd5b610ce060006118fb565b565b80610cec816109df565b73ffffffffffffffffffffffffffffffffffffffff163373ffffffffffffffffffffffffffffffffffffffff1614610d59576040517f08c379a0000000000000000000000000000000000000000000000000000000008152600401610d5090612f0a565b60405180910390fd5b81831415610d9c576040517f08c379a0000000000000000000000000000000000000000000000000000000008152600401610d9390612e4a565b60405180910390fd5b60001515600a6000848152602001908152602001600020600085815260200190815260200160002060009054906101000a900460ff16151514610e14576040517f08c379a0000000000000000000000000000000000000000000000000000000008152600401610e0b90612d0a565b60405180910390fd5b6001600a6000848152602001908152602001600020600085815260200190815260200160002060006101000a81548160ff02191690831515021790555082827f16bdce19402ca7cda2d248f7d08b6942b5939bc270a9ec3fb323b113fea05b5060405160405180910390a3505050565b6000600660009054906101000a900473ffffffffffffffffffffffffffffffffffffffff16905090565b606060018054610ebd90613177565b80601f0160208091040260200160405190810160405280929190818152602001828054610ee990613177565b8015610f365780601f10610f0b57610100808354040283529160200191610f36565b820191906000526020600020905b815481529060010190602001808311610f1957829003601f168201915b5050505050905090565b610f52610f4b6114be565b83836119c1565b5050565b60078060000154905081565b610f73610f6d6114be565b8361157f565b610fb2576040517f08c379a0000000000000000000000000000000000000000000000000000000008152600401610fa990612eea565b60405180910390fd5b610fbe84848484611b2e565b50505050565b60606000600860000160009054906101000a900473ffffffffffffffffffffffffffffffffffffffff1690508073ffffffffffffffffffffffffffffffffffffffff1663c87b56dd6008600101546040518263ffffffff1660e01b815260040161102e9190612f2a565b60006040518083038186803b15801561104657600080fd5b505afa15801561105a573d6000803e3d6000fd5b505050506040513d6000823e3d601f19601f820116820180604052508101906110839190612321565b915050919050565b6000600560008473ffffffffffffffffffffffffffffffffffffffff1673ffffffffffffffffffffffffffffffffffffffff16815260200190815260200160002060008373ffffffffffffffffffffffffffffffffffffffff1673ffffffffffffffffffffffffffffffffffffffff16815260200190815260200160002060009054906101000a900460ff16905092915050565b6111276114be565b73ffffffffffffffffffffffffffffffffffffffff16611145610e84565b73ffffffffffffffffffffffffffffffffffffffff161461119b576040517f08c379a000000000000000000000000000000000000000000000000000000000815260040161119290612e2a565b60405180910390fd5b600073ffffffffffffffffffffffffffffffffffffffff168173ffffffffffffffffffffffffffffffffffffffff16141561120b576040517f08c379a000000000000000000000000000000000000000000000000000000000815260040161120290612caa565b60405180910390fd5b611214816118fb565b50565b600a6020528160005260406000206020528060005260406000206000915091509054906101000a900460ff1681565b80611250816109df565b73ffffffffffffffffffffffffffffffffffffffff163373ffffffffffffffffffffffffffffffffffffffff16146112bd576040517f08c379a00000000000000000000000000000000000000000000000000000000081526004016112b490612f0a565b60405180910390fd5b81831415611300576040517f08c379a00000000000000000000000000000000000000000000000000000000081526004016112f790612e4a565b60405180910390fd5b60011515600a6000848152602001908152602001600020600085815260200190815260200160002060009054906101000a900460ff16151514611378576040517f08c379a000000000000000000000000000000000000000000000000000000000815260040161136f90612c6a565b60405180910390fd5b6000600a6000848152602001908152602001600020600085815260200190815260200160002060006101000a81548160ff02191690831515021790555082827f22d41f5ffb7660f21fcd3ac33e0bb7ac33fc5e8dae600b55e4c1ce58222cd29160405160405180910390a3505050565b60007f01ffc9a7000000000000000000000000000000000000000000000000000000007bffffffffffffffffffffffffffffffffffffffffffffffffffffffff1916827bffffffffffffffffffffffffffffffffffffffffffffffffffffffff1916149050919050565b60008073ffffffffffffffffffffffffffffffffffffffff166002600084815260200190815260200160002060009054906101000a900473ffffffffffffffffffffffffffffffffffffffff1673ffffffffffffffffffffffffffffffffffffffff1614159050919050565b600033905090565b816004600083815260200190815260200160002060006101000a81548173ffffffffffffffffffffffffffffffffffffffff021916908373ffffffffffffffffffffffffffffffffffffffff160217905550808273ffffffffffffffffffffffffffffffffffffffff16611539836109df565b73ffffffffffffffffffffffffffffffffffffffff167f8c5be1e5ebec7d5bd14f71427d1e84f3dd0314c0f7b2291e5b200ac8c7c3b92560405160405180910390a45050565b600061158a82611452565b6115c9576040517f08c379a00000000000000000000000000000000000000000000000000000000081526004016115c090612d6a565b60405180910390fd5b60006115d4836109df565b90508073ffffffffffffffffffffffffffffffffffffffff168473ffffffffffffffffffffffffffffffffffffffff16148061164357508373ffffffffffffffffffffffffffffffffffffffff1661162b846105b9565b73ffffffffffffffffffffffffffffffffffffffff16145b806116545750611653818561108b565b5b91505092915050565b8273ffffffffffffffffffffffffffffffffffffffff1661167d826109df565b73ffffffffffffffffffffffffffffffffffffffff16146116d3576040517f08c379a00000000000000000000000000000000000000000000000000000000081526004016116ca90612e6a565b60405180910390fd5b600073ffffffffffffffffffffffffffffffffffffffff168273ffffffffffffffffffffffffffffffffffffffff161415611743576040517f08c379a000000000000000000000000000000000000000000000000000000000815260040161173a90612d2a565b60405180910390fd5b61174e838383611b8a565b6117596000826114c6565b6001600360008573ffffffffffffffffffffffffffffffffffffffff1673ffffffffffffffffffffffffffffffffffffffff16815260200190815260200160002060008282546117a9919061308d565b925050819055506001600360008473ffffffffffffffffffffffffffffffffffffffff1673ffffffffffffffffffffffffffffffffffffffff16815260200190815260200160002060008282546118009190613037565b92505081905550816002600083815260200190815260200160002060006101000a81548173ffffffffffffffffffffffffffffffffffffffff021916908373ffffffffffffffffffffffffffffffffffffffff160217905550808273ffffffffffffffffffffffffffffffffffffffff168473ffffffffffffffffffffffffffffffffffffffff167fddf252ad1be2c89b69c2b068fc378daa952ba7f163c4a11628f55a4df523b3ef60405160405180910390a4505050565b600081600001549050919050565b6118e1828260405180602001604052806000815250611b8f565b5050565b6001816000016000828254019250508190555050565b6000600660009054906101000a900473ffffffffffffffffffffffffffffffffffffffff16905081600660006101000a81548173ffffffffffffffffffffffffffffffffffffffff021916908373ffffffffffffffffffffffffffffffffffffffff1602179055508173ffffffffffffffffffffffffffffffffffffffff168173ffffffffffffffffffffffffffffffffffffffff167f8be0079c531659141344cd1fd0a4f28419497f9722a3daafe3b4186f6b6457e060405160405180910390a35050565b8173ffffffffffffffffffffffffffffffffffffffff168373ffffffffffffffffffffffffffffffffffffffff161415611a30576040517f08c379a0000000000000000000000000000000000000000000000000000000008152600401611a2790612d4a565b60405180910390fd5b80600560008573ffffffffffffffffffffffffffffffffffffffff1673ffffffffffffffffffffffffffffffffffffffff16815260200190815260200160002060008473ffffffffffffffffffffffffffffffffffffffff1673ffffffffffffffffffffffffffffffffffffffff16815260200190815260200160002060006101000a81548160ff0219169083151502179055508173ffffffffffffffffffffffffffffffffffffffff168373ffffffffffffffffffffffffffffffffffffffff167f17307eab39ab6107e8899845ad3d59bd9653f200f220920489ca2b5937696c3183604051611b219190612c2d565b60405180910390a3505050565b611b3984848461165d565b611b4584848484611bea565b611b84576040517f08c379a0000000000000000000000000000000000000000000000000000000008152600401611b7b90612c8a565b60405180910390fd5b50505050565b505050565b611b998383611d81565b611ba66000848484611bea565b611be5576040517f08c379a0000000000000000000000000000000000000000000000000000000008152600401611bdc90612c8a565b60405180910390fd5b505050565b6000611c0b8473ffffffffffffffffffffffffffffffffffffffff16611f4f565b15611d74578373ffffffffffffffffffffffffffffffffffffffff1663150b7a02611c346114be565b8786866040518563ffffffff1660e01b8152600401611c569493929190612ba3565b602060405180830381600087803b158015611c7057600080fd5b505af1925050508015611ca157506040513d601f19601f82011682018060405250810190611c9e91906122f8565b60015b611d24573d8060008114611cd1576040519150601f19603f3d011682016040523d82523d6000602084013e611cd6565b606091505b50600081511415611d1c576040517f08c379a0000000000000000000000000000000000000000000000000000000008152600401611d1390612c8a565b60405180910390fd5b805181602001fd5b63150b7a0260e01b7bffffffffffffffffffffffffffffffffffffffffffffffffffffffff1916817bffffffffffffffffffffffffffffffffffffffffffffffffffffffff191614915050611d79565b600190505b949350505050565b600073ffffffffffffffffffffffffffffffffffffffff168273ffffffffffffffffffffffffffffffffffffffff161415611df1576040517f08c379a0000000000000000000000000000000000000000000000000000000008152600401611de890612dea565b60405180910390fd5b611dfa81611452565b15611e3a576040517f08c379a0000000000000000000000000000000000000000000000000000000008152600401611e3190612cca565b60405180910390fd5b611e4660008383611b8a565b6001600360008473ffffffffffffffffffffffffffffffffffffffff1673ffffffffffffffffffffffffffffffffffffffff1681526020019081526020016000206000828254611e969190613037565b92505081905550816002600083815260200190815260200160002060006101000a81548173ffffffffffffffffffffffffffffffffffffffff021916908373ffffffffffffffffffffffffffffffffffffffff160217905550808273ffffffffffffffffffffffffffffffffffffffff16600073ffffffffffffffffffffffffffffffffffffffff167fddf252ad1be2c89b69c2b068fc378daa952ba7f163c4a11628f55a4df523b3ef60405160405180910390a45050565b600080823b905060008111915050919050565b6000611f75611f7084612f9f565b612f6e565b905082815260208101848484011115611f8d57600080fd5b611f98848285613135565b509392505050565b6000611fb3611fae84612fcf565b612f6e565b905082815260208101848484011115611fcb57600080fd5b611fd6848285613144565b509392505050565b600081359050611fed81613247565b92915050565b60008151905061200281613247565b92915050565b6000813590506120178161325e565b92915050565b60008135905061202c81613275565b92915050565b60008151905061204181613275565b92915050565b600082601f83011261205857600080fd5b8135612068848260208601611f62565b91505092915050565b600082601f83011261208257600080fd5b8151612092848260208601611fa0565b91505092915050565b6000813590506120aa8161328c565b92915050565b6000602082840312156120c257600080fd5b60006120d084828501611fde565b91505092915050565b6000602082840312156120eb57600080fd5b60006120f984828501611ff3565b91505092915050565b6000806040838503121561211557600080fd5b600061212385828601611fde565b925050602061213485828601611fde565b9150509250929050565b60008060006060848603121561215357600080fd5b600061216186828701611fde565b935050602061217286828701611fde565b92505060406121838682870161209b565b9150509250925092565b600080600080608085870312156121a357600080fd5b60006121b187828801611fde565b94505060206121c287828801611fde565b93505060406121d38782880161209b565b925050606085013567ffffffffffffffff8111156121f057600080fd5b6121fc87828801612047565b91505092959194509250565b6000806040838503121561221b57600080fd5b600061222985828601611fde565b925050602061223a85828601612008565b9150509250929050565b6000806040838503121561225757600080fd5b600061226585828601611fde565b92505060206122768582860161209b565b9150509250929050565b60008060006060848603121561229557600080fd5b60006122a386828701611fde565b93505060206122b48682870161209b565b92505060406122c58682870161209b565b9150509250925092565b6000602082840312156122e157600080fd5b60006122ef8482850161201d565b91505092915050565b60006020828403121561230a57600080fd5b600061231884828501612032565b91505092915050565b60006020828403121561233357600080fd5b600082015167ffffffffffffffff81111561234d57600080fd5b61235984828501612071565b91505092915050565b60006020828403121561237457600080fd5b60006123828482850161209b565b91505092915050565b6000806040838503121561239e57600080fd5b60006123ac8582860161209b565b92505060206123bd8582860161209b565b9150509250929050565b6123d0816130c1565b82525050565b6123df816130d3565b82525050565b60006123f082612fff565b6123fa8185613015565b935061240a818560208601613144565b61241381613236565b840191505092915050565b60006124298261300a565b6124338185613026565b9350612443818560208601613144565b61244c81613236565b840191505092915050565b6000612464600c83613026565b91507f6e6f7420666f6c6c6f77656400000000000000000000000000000000000000006000830152602082019050919050565b60006124a4603283613026565b91507f4552433732313a207472616e7366657220746f206e6f6e20455243373231526560008301527f63656976657220696d706c656d656e74657200000000000000000000000000006020830152604082019050919050565b600061250a602683613026565b91507f4f776e61626c653a206e6577206f776e657220697320746865207a65726f206160008301527f64647265737300000000000000000000000000000000000000000000000000006020830152604082019050919050565b6000612570601c83613026565b91507f4552433732313a20746f6b656e20616c7265616479206d696e746564000000006000830152602082019050919050565b60006125b0601183613026565b91507f6e6f742070726f66696c65206f776e65720000000000000000000000000000006000830152602082019050919050565b60006125f0600983613026565b91507f6475706c696361746500000000000000000000000000000000000000000000006000830152602082019050919050565b6000612630602483613026565b91507f4552433732313a207472616e7366657220746f20746865207a65726f2061646460008301527f72657373000000000000000000000000000000000000000000000000000000006020830152604082019050919050565b6000612696601983613026565b91507f4552433732313a20617070726f766520746f2063616c6c6572000000000000006000830152602082019050919050565b60006126d6602c83613026565b91507f4552433732313a206f70657261746f7220717565727920666f72206e6f6e657860008301527f697374656e7420746f6b656e00000000000000000000000000000000000000006020830152604082019050919050565b600061273c603883613026565b91507f4552433732313a20617070726f76652063616c6c6572206973206e6f74206f7760008301527f6e6572206e6f7220617070726f76656420666f7220616c6c00000000000000006020830152604082019050919050565b60006127a2602a83613026565b91507f4552433732313a2062616c616e636520717565727920666f7220746865207a6560008301527f726f2061646472657373000000000000000000000000000000000000000000006020830152604082019050919050565b6000612808602983613026565b91507f4552433732313a206f776e657220717565727920666f72206e6f6e657869737460008301527f656e7420746f6b656e00000000000000000000000000000000000000000000006020830152604082019050919050565b600061286e602083613026565b91507f4552433732313a206d696e7420746f20746865207a65726f20616464726573736000830152602082019050919050565b60006128ae602c83613026565b91507f4552433732313a20617070726f76656420717565727920666f72206e6f6e657860008301527f697374656e7420746f6b656e00000000000000000000000000000000000000006020830152604082019050919050565b6000612914602083613026565b91507f4f776e61626c653a2063616c6c6572206973206e6f7420746865206f776e65726000830152602082019050919050565b6000612954600483613026565b91507f73656c66000000000000000000000000000000000000000000000000000000006000830152602082019050919050565b6000612994602983613026565b91507f4552433732313a207472616e73666572206f6620746f6b656e2074686174206960008301527f73206e6f74206f776e00000000000000000000000000000000000000000000006020830152604082019050919050565b60006129fa601083613026565b91507f6d696e74206e6f7420616c6c6f776564000000000000000000000000000000006000830152602082019050919050565b6000612a3a602183613026565b91507f4552433732313a20617070726f76616c20746f2063757272656e74206f776e6560008301527f72000000000000000000000000000000000000000000000000000000000000006020830152604082019050919050565b6000612aa0601083613026565b91507f6e6f7420617661746172206f776e6572000000000000000000000000000000006000830152602082019050919050565b6000612ae0603183613026565b91507f4552433732313a207472616e736665722063616c6c6572206973206e6f74206f60008301527f776e6572206e6f7220617070726f7665640000000000000000000000000000006020830152604082019050919050565b6000612b46600983613026565b91507f6e6f74206f776e657200000000000000000000000000000000000000000000006000830152602082019050919050565b612b828161312b565b82525050565b6000602082019050612b9d60008301846123c7565b92915050565b6000608082019050612bb860008301876123c7565b612bc560208301866123c7565b612bd26040830185612b79565b8181036060830152612be481846123e5565b905095945050505050565b6000606082019050612c0460008301866123c7565b612c116020830185612b79565b8181036040830152612c23818461241e565b9050949350505050565b6000602082019050612c4260008301846123d6565b92915050565b60006020820190508181036000830152612c62818461241e565b905092915050565b60006020820190508181036000830152612c8381612457565b9050919050565b60006020820190508181036000830152612ca381612497565b9050919050565b60006020820190508181036000830152612cc3816124fd565b9050919050565b60006020820190508181036000830152612ce381612563565b9050919050565b60006020820190508181036000830152612d03816125a3565b9050919050565b60006020820190508181036000830152612d23816125e3565b9050919050565b60006020820190508181036000830152612d4381612623565b9050919050565b60006020820190508181036000830152612d6381612689565b9050919050565b60006020820190508181036000830152612d83816126c9565b9050919050565b60006020820190508181036000830152612da38161272f565b9050919050565b60006020820190508181036000830152612dc381612795565b9050919050565b60006020820190508181036000830152612de3816127fb565b9050919050565b60006020820190508181036000830152612e0381612861565b9050919050565b60006020820190508181036000830152612e23816128a1565b9050919050565b60006020820190508181036000830152612e4381612907565b9050919050565b60006020820190508181036000830152612e6381612947565b9050919050565b60006020820190508181036000830152612e8381612987565b9050919050565b60006020820190508181036000830152612ea3816129ed565b9050919050565b60006020820190508181036000830152612ec381612a2d565b9050919050565b60006020820190508181036000830152612ee381612a93565b9050919050565b60006020820190508181036000830152612f0381612ad3565b9050919050565b60006020820190508181036000830152612f2381612b39565b9050919050565b6000602082019050612f3f6000830184612b79565b92915050565b6000604082019050612f5a6000830185612b79565b612f6760208301846123c7565b9392505050565b6000604051905081810181811067ffffffffffffffff82111715612f9557612f94613207565b5b8060405250919050565b600067ffffffffffffffff821115612fba57612fb9613207565b5b601f19601f8301169050602081019050919050565b600067ffffffffffffffff821115612fea57612fe9613207565b5b601f19601f8301169050602081019050919050565b600081519050919050565b600081519050919050565b600082825260208201905092915050565b600082825260208201905092915050565b60006130428261312b565b915061304d8361312b565b9250827fffffffffffffffffffffffffffffffffffffffffffffffffffffffffffffffff03821115613082576130816131a9565b5b828201905092915050565b60006130988261312b565b91506130a38361312b565b9250828210156130b6576130b56131a9565b5b828203905092915050565b60006130cc8261310b565b9050919050565b60008115159050919050565b60007fffffffff0000000000000000000000000000000000000000000000000000000082169050919050565b600073ffffffffffffffffffffffffffffffffffffffff82169050919050565b6000819050919050565b82818337600083830152505050565b60005b83811015613162578082015181840152602081019050613147565b83811115613171576000848401525b50505050565b6000600282049050600182168061318f57607f821691505b602082108114156131a3576131a26131d8565b5b50919050565b7f4e487b7100000000000000000000000000000000000000000000000000000000600052601160045260246000fd5b7f4e487b7100000000000000000000000000000000000000000000000000000000600052602260045260246000fd5b7f4e487b7100000000000000000000000000000000000000000000000000000000600052604160045260246000fd5b6000601f19601f8301169050919050565b613250816130c1565b811461325b57600080fd5b50565b613267816130d3565b811461327257600080fd5b50565b61327e816130df565b811461328957600080fd5b50565b6132958161312b565b81146132a057600080fd5b5056fea2646970667358221220370efea911cbd9901737ab4e7166d22253902d961b9d81fad14352406177ce3064736f6c63430008000033",
  "linkReferences": {},
  "deployedLinkReferences": {}
}