{
  "_format": "hh-sol-artifact-1",
  "contractName": "ProfileGraph",
  "sourceName": "contracts/ProfileGraph.sol",
  "abi": [
    {
      "anonymous": false,
      "inputs": [
        {
          "indexed": true,
          "internalType": "address",
          "name": "owner",
          "type": "address"
        },
        {
          "indexed": true,
          "internalType": "address",
          "name": "approved",
          "type": "address"
        },
        {
          "indexed": true,
          "internalType": "uint256",
          "name": "tokenId",
          "type": "uint256"
        }
      ],
      "name": "Approval",
      "type": "event"
    },
    {
      "anonymous": false,
      "inputs": [
        {
          "indexed": true,
          "internalType": "address",
          "name": "owner",
          "type": "address"
        },
        {
          "indexed": true,
          "internalType": "address",
          "name": "operator",
          "type": "address"
        },
        {
          "indexed": false,
          "internalType": "bool",
          "name": "approved",
          "type": "bool"
        }
      ],
      "name": "ApprovalForAll",
      "type": "event"
    },
    {
      "anonymous": false,
      "inputs": [
        {
          "indexed": false,
          "internalType": "uint256",
          "name": "follower",
          "type": "uint256"
        },
        {
          "indexed": false,
          "internalType": "uint256",
          "name": "followed",
          "type": "uint256"
        }
      ],
      "name": "Follow",
      "type": "event"
    },
    {
      "anonymous": false,
      "inputs": [
        {
          "indexed": false,
          "internalType": "uint256",
          "name": "tokenId",
          "type": "uint256"
        },
        {
          "indexed": false,
          "internalType": "address",
          "name": "owner",
          "type": "address"
        }
      ],
      "name": "NewProfile",
      "type": "event"
    },
    {
      "anonymous": false,
      "inputs": [
        {
          "indexed": true,
          "internalType": "address",
          "name": "previousOwner",
          "type": "address"
        },
        {
          "indexed": true,
          "internalType": "address",
          "name": "newOwner",
          "type": "address"
        }
      ],
      "name": "OwnershipTransferred",
      "type": "event"
    },
    {
      "anonymous": false,
      "inputs": [
        {
          "indexed": true,
          "internalType": "address",
          "name": "from",
          "type": "address"
        },
        {
          "indexed": true,
          "internalType": "address",
          "name": "to",
          "type": "address"
        },
        {
          "indexed": true,
          "internalType": "uint256",
          "name": "tokenId",
          "type": "uint256"
        }
      ],
      "name": "Transfer",
      "type": "event"
    },
    {
      "anonymous": false,
      "inputs": [
        {
          "indexed": false,
          "internalType": "uint256",
          "name": "follower",
          "type": "uint256"
        },
        {
          "indexed": false,
          "internalType": "uint256",
          "name": "unfollowed",
          "type": "uint256"
        }
      ],
      "name": "Unfollow",
      "type": "event"
    },
    {
      "inputs": [],
      "name": "_tokenIds",
      "outputs": [
        {
          "internalType": "uint256",
          "name": "_value",
          "type": "uint256"
        }
      ],
      "stateMutability": "view",
      "type": "function"
    },
    {
      "inputs": [
        {
          "internalType": "address",
          "name": "to",
          "type": "address"
        },
        {
          "internalType": "uint256",
          "name": "tokenId",
          "type": "uint256"
        }
      ],
      "name": "approve",
      "outputs": [],
      "stateMutability": "nonpayable",
      "type": "function"
    },
    {
      "inputs": [
        {
          "internalType": "address",
          "name": "owner",
          "type": "address"
        }
      ],
      "name": "balanceOf",
      "outputs": [
        {
          "internalType": "uint256",
          "name": "",
          "type": "uint256"
        }
      ],
      "stateMutability": "view",
      "type": "function"
    },
    {
      "inputs": [
        {
          "internalType": "uint256",
          "name": "toFollow",
          "type": "uint256"
        },
        {
          "internalType": "uint256",
          "name": "byFollower",
          "type": "uint256"
        }
      ],
      "name": "follow",
      "outputs": [],
      "stateMutability": "nonpayable",
      "type": "function"
    },
    {
      "inputs": [
        {
          "internalType": "uint256",
          "name": "",
          "type": "uint256"
        },
        {
          "internalType": "uint256",
          "name": "",
          "type": "uint256"
        }
      ],
      "name": "followings",
      "outputs": [
        {
          "internalType": "bool",
          "name": "",
          "type": "bool"
        }
      ],
      "stateMutability": "view",
      "type": "function"
    },
    {
      "inputs": [
        {
          "internalType": "uint256",
          "name": "tokenId",
          "type": "uint256"
        }
      ],
      "name": "getApproved",
      "outputs": [
        {
          "internalType": "address",
          "name": "",
          "type": "address"
        }
      ],
      "stateMutability": "view",
      "type": "function"
    },
    {
      "inputs": [
        {
          "internalType": "address",
          "name": "owner",
          "type": "address"
        },
        {
          "internalType": "address",
          "name": "operator",
          "type": "address"
        }
      ],
      "name": "isApprovedForAll",
      "outputs": [
        {
          "internalType": "bool",
          "name": "",
          "type": "bool"
        }
      ],
      "stateMutability": "view",
      "type": "function"
    },
    {
      "inputs": [
        {
          "internalType": "address",
          "name": "to",
          "type": "address"
        }
      ],
      "name": "mint",
      "outputs": [
        {
          "internalType": "uint256",
          "name": "",
          "type": "uint256"
        }
      ],
      "stateMutability": "nonpayable",
      "type": "function"
    },
    {
      "inputs": [],
      "name": "name",
      "outputs": [
        {
          "internalType": "string",
          "name": "",
          "type": "string"
        }
      ],
      "stateMutability": "view",
      "type": "function"
    },
    {
      "inputs": [],
      "name": "owner",
      "outputs": [
        {
          "internalType": "address",
          "name": "",
          "type": "address"
        }
      ],
      "stateMutability": "view",
      "type": "function"
    },
    {
      "inputs": [
        {
          "internalType": "uint256",
          "name": "tokenId",
          "type": "uint256"
        }
      ],
      "name": "ownerOf",
      "outputs": [
        {
          "internalType": "address",
          "name": "",
          "type": "address"
        }
      ],
      "stateMutability": "view",
      "type": "function"
    },
    {
      "inputs": [],
      "name": "renounceOwnership",
      "outputs": [],
      "stateMutability": "nonpayable",
      "type": "function"
    },
    {
      "inputs": [
        {
          "internalType": "address",
          "name": "from",
          "type": "address"
        },
        {
          "internalType": "address",
          "name": "to",
          "type": "address"
        },
        {
          "internalType": "uint256",
          "name": "tokenId",
          "type": "uint256"
        }
      ],
      "name": "safeTransferFrom",
      "outputs": [],
      "stateMutability": "nonpayable",
      "type": "function"
    },
    {
      "inputs": [
        {
          "internalType": "address",
          "name": "from",
          "type": "address"
        },
        {
          "internalType": "address",
          "name": "to",
          "type": "address"
        },
        {
          "internalType": "uint256",
          "name": "tokenId",
          "type": "uint256"
        },
        {
          "internalType": "bytes",
          "name": "_data",
          "type": "bytes"
        }
      ],
      "name": "safeTransferFrom",
      "outputs": [],
      "stateMutability": "nonpayable",
      "type": "function"
    },
    {
      "inputs": [
        {
          "internalType": "address",
          "name": "operator",
          "type": "address"
        },
        {
          "internalType": "bool",
          "name": "approved",
          "type": "bool"
        }
      ],
      "name": "setApprovalForAll",
      "outputs": [],
      "stateMutability": "nonpayable",
      "type": "function"
    },
    {
      "inputs": [
        {
          "internalType": "bytes4",
          "name": "interfaceId",
          "type": "bytes4"
        }
      ],
      "name": "supportsInterface",
      "outputs": [
        {
          "internalType": "bool",
          "name": "",
          "type": "bool"
        }
      ],
      "stateMutability": "view",
      "type": "function"
    },
    {
      "inputs": [],
      "name": "symbol",
      "outputs": [
        {
          "internalType": "string",
          "name": "",
          "type": "string"
        }
      ],
      "stateMutability": "view",
      "type": "function"
    },
    {
      "inputs": [
        {
          "internalType": "uint256",
          "name": "tokenId",
          "type": "uint256"
        }
      ],
      "name": "tokenURI",
      "outputs": [
        {
          "internalType": "string",
          "name": "",
          "type": "string"
        }
      ],
      "stateMutability": "view",
      "type": "function"
    },
    {
      "inputs": [
        {
          "internalType": "address",
          "name": "from",
          "type": "address"
        },
        {
          "internalType": "address",
          "name": "to",
          "type": "address"
        },
        {
          "internalType": "uint256",
          "name": "tokenId",
          "type": "uint256"
        }
      ],
      "name": "transferFrom",
      "outputs": [],
      "stateMutability": "nonpayable",
      "type": "function"
    },
    {
      "inputs": [
        {
          "internalType": "address",
          "name": "newOwner",
          "type": "address"
        }
      ],
      "name": "transferOwnership",
      "outputs": [],
      "stateMutability": "nonpayable",
      "type": "function"
    },
    {
      "inputs": [
        {
          "internalType": "uint256",
          "name": "toUnfollow",
          "type": "uint256"
        },
        {
          "internalType": "uint256",
          "name": "byFollower",
          "type": "uint256"
        }
      ],
      "name": "unfollow",
      "outputs": [],
      "stateMutability": "nonpayable",
      "type": "function"
    }
  ],
  "bytecode": "0x60806040523480156200001157600080fd5b506040518060400160405280600c81526020017f4e69667479436f6e6e65637400000000000000000000000000000000000000008152506040518060400160405280600481526020017f4e46544300000000000000000000000000000000000000000000000000000000815250816000908051906020019062000096929190620001a6565b508060019080519060200190620000af929190620001a6565b505050620000d2620000c6620000d860201b60201c565b620000e060201b60201c565b620002bb565b600033905090565b6000600660009054906101000a900473ffffffffffffffffffffffffffffffffffffffff16905081600660006101000a81548173ffffffffffffffffffffffffffffffffffffffff021916908373ffffffffffffffffffffffffffffffffffffffff1602179055508173ffffffffffffffffffffffffffffffffffffffff168173ffffffffffffffffffffffffffffffffffffffff167f8be0079c531659141344cd1fd0a4f28419497f9722a3daafe3b4186f6b6457e060405160405180910390a35050565b828054620001b49062000256565b90600052602060002090601f016020900481019282620001d8576000855562000224565b82601f10620001f357805160ff191683800117855562000224565b8280016001018555821562000224579182015b828111156200022357825182559160200191906001019062000206565b5b50905062000233919062000237565b5090565b5b808211156200025257600081600090555060010162000238565b5090565b600060028204905060018216806200026f57607f821691505b602082108114156200028657620002856200028c565b5b50919050565b7f4e487b7100000000000000000000000000000000000000000000000000000000600052602260045260246000fd5b61311c80620002cb6000396000f3fe608060405234801561001057600080fd5b50600436106101375760003560e01c8063821defc2116100b8578063b88d4fde1161007c578063b88d4fde1461033a578063c87b56dd14610356578063e985e9c514610386578063f2fde38b146103b6578063f407eb1a146103d2578063fb1bf05d1461040257610137565b8063821defc2146102a85780638da5cb5b146102c457806395d89b41146102e2578063a22cb46514610300578063aa46a4001461031c57610137565b806342842e0e116100ff57806342842e0e146101f25780636352211e1461020e5780636a6278421461023e57806370a082311461026e578063715018a61461029e57610137565b806301ffc9a71461013c57806306fdde031461016c578063081812fc1461018a578063095ea7b3146101ba57806323b872dd146101d6575b600080fd5b610156600480360381019061015191906120f8565b61041e565b60405161016391906129d2565b60405180910390f35b610174610500565b60405161018191906129ed565b60405180910390f35b6101a4600480360381019061019f919061214a565b610592565b6040516101b1919061296b565b60405180910390f35b6101d460048036038101906101cf91906120bc565b610617565b005b6101f060048036038101906101eb9190611fb6565b61072f565b005b61020c60048036038101906102079190611fb6565b61078f565b005b6102286004803603810190610223919061214a565b6107af565b604051610235919061296b565b60405180910390f35b61025860048036038101906102539190611f51565b610861565b6040516102659190612c8f565b60405180910390f35b61028860048036038101906102839190611f51565b610972565b6040516102959190612c8f565b60405180910390f35b6102a6610a2a565b005b6102c260048036038101906102bd9190612173565b610ab2565b005b6102cc610c29565b6040516102d9919061296b565b60405180910390f35b6102ea610c53565b6040516102f791906129ed565b60405180910390f35b61031a60048036038101906103159190612080565b610ce5565b005b610324610cfb565b6040516103319190612c8f565b60405180910390f35b610354600480360381019061034f9190612005565b610d07565b005b610370600480360381019061036b919061214a565b610d69565b60405161037d91906129ed565b60405180910390f35b6103a0600480360381019061039b9190611f7a565b610e10565b6040516103ad91906129d2565b60405180910390f35b6103d060048036038101906103cb9190611f51565b610ea4565b005b6103ec60048036038101906103e79190612173565b610f9c565b6040516103f991906129d2565b60405180910390f35b61041c60048036038101906104179190612173565b610fcb565b005b60007f80ac58cd000000000000000000000000000000000000000000000000000000007bffffffffffffffffffffffffffffffffffffffffffffffffffffffff1916827bffffffffffffffffffffffffffffffffffffffffffffffffffffffff191614806104e957507f5b5e139f000000000000000000000000000000000000000000000000000000007bffffffffffffffffffffffffffffffffffffffffffffffffffffffff1916827bffffffffffffffffffffffffffffffffffffffffffffffffffffffff1916145b806104f957506104f882611142565b5b9050919050565b60606000805461050f90612f11565b80601f016020809104026020016040519081016040528092919081815260200182805461053b90612f11565b80156105885780601f1061055d57610100808354040283529160200191610588565b820191906000526020600020905b81548152906001019060200180831161056b57829003601f168201915b5050505050905090565b600061059d826111ac565b6105dc576040517f08c379a00000000000000000000000000000000000000000000000000000000081526004016105d390612b8f565b60405180910390fd5b6004600083815260200190815260200160002060009054906101000a900473ffffffffffffffffffffffffffffffffffffffff169050919050565b6000610622826107af565b90508073ffffffffffffffffffffffffffffffffffffffff168373ffffffffffffffffffffffffffffffffffffffff161415610693576040517f08c379a000000000000000000000000000000000000000000000000000000000815260040161068a90612c4f565b60405180910390fd5b8073ffffffffffffffffffffffffffffffffffffffff166106b2611218565b73ffffffffffffffffffffffffffffffffffffffff1614806106e157506106e0816106db611218565b610e10565b5b610720576040517f08c379a000000000000000000000000000000000000000000000000000000000815260040161071790612b0f565b60405180910390fd5b61072a8383611220565b505050565b61074061073a611218565b826112d9565b61077f576040517f08c379a000000000000000000000000000000000000000000000000000000000815260040161077690612c6f565b60405180910390fd5b61078a8383836113b7565b505050565b6107aa83838360405180602001604052806000815250610d07565b505050565b6000806002600084815260200190815260200160002060009054906101000a900473ffffffffffffffffffffffffffffffffffffffff169050600073ffffffffffffffffffffffffffffffffffffffff168173ffffffffffffffffffffffffffffffffffffffff161415610858576040517f08c379a000000000000000000000000000000000000000000000000000000000815260040161084f90612b4f565b60405180910390fd5b80915050919050565b600061086b610c29565b73ffffffffffffffffffffffffffffffffffffffff163373ffffffffffffffffffffffffffffffffffffffff1614806108cf57508173ffffffffffffffffffffffffffffffffffffffff163373ffffffffffffffffffffffffffffffffffffffff16145b61090e576040517f08c379a000000000000000000000000000000000000000000000000000000000815260040161090590612c2f565b60405180910390fd5b600061091a6007611613565b90506109268382611621565b7ff77721877cc609f5dfdedb32c3763b24fea3a928c62b5e2c5675cceb8f56c20c8184604051610957929190612caa565b60405180910390a1610969600761163f565b80915050919050565b60008073ffffffffffffffffffffffffffffffffffffffff168273ffffffffffffffffffffffffffffffffffffffff1614156109e3576040517f08c379a00000000000000000000000000000000000000000000000000000000081526004016109da90612b2f565b60405180910390fd5b600360008373ffffffffffffffffffffffffffffffffffffffff1673ffffffffffffffffffffffffffffffffffffffff168152602001908152602001600020549050919050565b610a32611218565b73ffffffffffffffffffffffffffffffffffffffff16610a50610c29565b73ffffffffffffffffffffffffffffffffffffffff1614610aa6576040517f08c379a0000000000000000000000000000000000000000000000000000000008152600401610a9d90612baf565b60405180910390fd5b610ab06000611655565b565b80610abc816107af565b73ffffffffffffffffffffffffffffffffffffffff163373ffffffffffffffffffffffffffffffffffffffff1614610af357600080fd5b81831415610b36576040517f08c379a0000000000000000000000000000000000000000000000000000000008152600401610b2d90612bcf565b60405180910390fd5b6000151560086000848152602001908152602001600020600085815260200190815260200160002060009054906101000a900460ff16151514610bae576040517f08c379a0000000000000000000000000000000000000000000000000000000008152600401610ba590612a8f565b60405180910390fd5b600160086000848152602001908152602001600020600085815260200190815260200160002060006101000a81548160ff0219169083151502179055507f16bdce19402ca7cda2d248f7d08b6942b5939bc270a9ec3fb323b113fea05b508284604051610c1c929190612cd3565b60405180910390a1505050565b6000600660009054906101000a900473ffffffffffffffffffffffffffffffffffffffff16905090565b606060018054610c6290612f11565b80601f0160208091040260200160405190810160405280929190818152602001828054610c8e90612f11565b8015610cdb5780601f10610cb057610100808354040283529160200191610cdb565b820191906000526020600020905b815481529060010190602001808311610cbe57829003601f168201915b5050505050905090565b610cf7610cf0611218565b838361171b565b5050565b60078060000154905081565b610d18610d12611218565b836112d9565b610d57576040517f08c379a0000000000000000000000000000000000000000000000000000000008152600401610d4e90612c6f565b60405180910390fd5b610d6384848484611888565b50505050565b6060610d74826111ac565b610db3576040517f08c379a0000000000000000000000000000000000000000000000000000000008152600401610daa90612c0f565b60405180910390fd5b6000610dbd6118e4565b90506000815111610ddd5760405180602001604052806000815250610e08565b80610de7846118fb565b604051602001610df8929190612947565b6040516020818303038152906040525b915050919050565b6000600560008473ffffffffffffffffffffffffffffffffffffffff1673ffffffffffffffffffffffffffffffffffffffff16815260200190815260200160002060008373ffffffffffffffffffffffffffffffffffffffff1673ffffffffffffffffffffffffffffffffffffffff16815260200190815260200160002060009054906101000a900460ff16905092915050565b610eac611218565b73ffffffffffffffffffffffffffffffffffffffff16610eca610c29565b73ffffffffffffffffffffffffffffffffffffffff1614610f20576040517f08c379a0000000000000000000000000000000000000000000000000000000008152600401610f1790612baf565b60405180910390fd5b600073ffffffffffffffffffffffffffffffffffffffff168173ffffffffffffffffffffffffffffffffffffffff161415610f90576040517f08c379a0000000000000000000000000000000000000000000000000000000008152600401610f8790612a4f565b60405180910390fd5b610f9981611655565b50565b60086020528160005260406000206020528060005260406000206000915091509054906101000a900460ff1681565b80610fd5816107af565b73ffffffffffffffffffffffffffffffffffffffff163373ffffffffffffffffffffffffffffffffffffffff161461100c57600080fd5b8183141561104f576040517f08c379a000000000000000000000000000000000000000000000000000000000815260040161104690612bcf565b60405180910390fd5b6001151560086000848152602001908152602001600020600085815260200190815260200160002060009054906101000a900460ff161515146110c7576040517f08c379a00000000000000000000000000000000000000000000000000000000081526004016110be90612a0f565b60405180910390fd5b600060086000848152602001908152602001600020600085815260200190815260200160002060006101000a81548160ff0219169083151502179055507f22d41f5ffb7660f21fcd3ac33e0bb7ac33fc5e8dae600b55e4c1ce58222cd2918284604051611135929190612cd3565b60405180910390a1505050565b60007f01ffc9a7000000000000000000000000000000000000000000000000000000007bffffffffffffffffffffffffffffffffffffffffffffffffffffffff1916827bffffffffffffffffffffffffffffffffffffffffffffffffffffffff1916149050919050565b60008073ffffffffffffffffffffffffffffffffffffffff166002600084815260200190815260200160002060009054906101000a900473ffffffffffffffffffffffffffffffffffffffff1673ffffffffffffffffffffffffffffffffffffffff1614159050919050565b600033905090565b816004600083815260200190815260200160002060006101000a81548173ffffffffffffffffffffffffffffffffffffffff021916908373ffffffffffffffffffffffffffffffffffffffff160217905550808273ffffffffffffffffffffffffffffffffffffffff16611293836107af565b73ffffffffffffffffffffffffffffffffffffffff167f8c5be1e5ebec7d5bd14f71427d1e84f3dd0314c0f7b2291e5b200ac8c7c3b92560405160405180910390a45050565b60006112e4826111ac565b611323576040517f08c379a000000000000000000000000000000000000000000000000000000000815260040161131a90612aef565b60405180910390fd5b600061132e836107af565b90508073ffffffffffffffffffffffffffffffffffffffff168473ffffffffffffffffffffffffffffffffffffffff16148061139d57508373ffffffffffffffffffffffffffffffffffffffff1661138584610592565b73ffffffffffffffffffffffffffffffffffffffff16145b806113ae57506113ad8185610e10565b5b91505092915050565b8273ffffffffffffffffffffffffffffffffffffffff166113d7826107af565b73ffffffffffffffffffffffffffffffffffffffff161461142d576040517f08c379a000000000000000000000000000000000000000000000000000000000815260040161142490612bef565b60405180910390fd5b600073ffffffffffffffffffffffffffffffffffffffff168273ffffffffffffffffffffffffffffffffffffffff16141561149d576040517f08c379a000000000000000000000000000000000000000000000000000000000815260040161149490612aaf565b60405180910390fd5b6114a8838383611aa8565b6114b3600082611220565b6001600360008573ffffffffffffffffffffffffffffffffffffffff1673ffffffffffffffffffffffffffffffffffffffff16815260200190815260200160002060008282546115039190612e27565b925050819055506001600360008473ffffffffffffffffffffffffffffffffffffffff1673ffffffffffffffffffffffffffffffffffffffff168152602001908152602001600020600082825461155a9190612da0565b92505081905550816002600083815260200190815260200160002060006101000a81548173ffffffffffffffffffffffffffffffffffffffff021916908373ffffffffffffffffffffffffffffffffffffffff160217905550808273ffffffffffffffffffffffffffffffffffffffff168473ffffffffffffffffffffffffffffffffffffffff167fddf252ad1be2c89b69c2b068fc378daa952ba7f163c4a11628f55a4df523b3ef60405160405180910390a4505050565b600081600001549050919050565b61163b828260405180602001604052806000815250611aad565b5050565b6001816000016000828254019250508190555050565b6000600660009054906101000a900473ffffffffffffffffffffffffffffffffffffffff16905081600660006101000a81548173ffffffffffffffffffffffffffffffffffffffff021916908373ffffffffffffffffffffffffffffffffffffffff1602179055508173ffffffffffffffffffffffffffffffffffffffff168173ffffffffffffffffffffffffffffffffffffffff167f8be0079c531659141344cd1fd0a4f28419497f9722a3daafe3b4186f6b6457e060405160405180910390a35050565b8173ffffffffffffffffffffffffffffffffffffffff168373ffffffffffffffffffffffffffffffffffffffff16141561178a576040517f08c379a000000000000000000000000000000000000000000000000000000000815260040161178190612acf565b60405180910390fd5b80600560008573ffffffffffffffffffffffffffffffffffffffff1673ffffffffffffffffffffffffffffffffffffffff16815260200190815260200160002060008473ffffffffffffffffffffffffffffffffffffffff1673ffffffffffffffffffffffffffffffffffffffff16815260200190815260200160002060006101000a81548160ff0219169083151502179055508173ffffffffffffffffffffffffffffffffffffffff168373ffffffffffffffffffffffffffffffffffffffff167f17307eab39ab6107e8899845ad3d59bd9653f200f220920489ca2b5937696c318360405161187b91906129d2565b60405180910390a3505050565b6118938484846113b7565b61189f84848484611b08565b6118de576040517f08c379a00000000000000000000000000000000000000000000000000000000081526004016118d590612a2f565b60405180910390fd5b50505050565b606060405180602001604052806000815250905090565b60606000821415611943576040518060400160405280600181526020017f30000000000000000000000000000000000000000000000000000000000000008152509050611aa3565b600082905060005b6000821461197557808061195e90612f43565b915050600a8261196e9190612df6565b915061194b565b60008167ffffffffffffffff8111156119b7577f4e487b7100000000000000000000000000000000000000000000000000000000600052604160045260246000fd5b6040519080825280601f01601f1916602001820160405280156119e95781602001600182028036833780820191505090505b5090505b60008514611a9c57600182611a029190612e27565b9150600a85611a119190612f8c565b6030611a1d9190612da0565b60f81b818381518110611a59577f4e487b7100000000000000000000000000000000000000000000000000000000600052603260045260246000fd5b60200101907effffffffffffffffffffffffffffffffffffffffffffffffffffffffffffff1916908160001a905350600a85611a959190612df6565b94506119ed565b8093505050505b919050565b505050565b611ab78383611c9f565b611ac46000848484611b08565b611b03576040517f08c379a0000000000000000000000000000000000000000000000000000000008152600401611afa90612a2f565b60405180910390fd5b505050565b6000611b298473ffffffffffffffffffffffffffffffffffffffff16611e6d565b15611c92578373ffffffffffffffffffffffffffffffffffffffff1663150b7a02611b52611218565b8786866040518563ffffffff1660e01b8152600401611b749493929190612986565b602060405180830381600087803b158015611b8e57600080fd5b505af1925050508015611bbf57506040513d601f19601f82011682018060405250810190611bbc9190612121565b60015b611c42573d8060008114611bef576040519150601f19603f3d011682016040523d82523d6000602084013e611bf4565b606091505b50600081511415611c3a576040517f08c379a0000000000000000000000000000000000000000000000000000000008152600401611c3190612a2f565b60405180910390fd5b805181602001fd5b63150b7a0260e01b7bffffffffffffffffffffffffffffffffffffffffffffffffffffffff1916817bffffffffffffffffffffffffffffffffffffffffffffffffffffffff191614915050611c97565b600190505b949350505050565b600073ffffffffffffffffffffffffffffffffffffffff168273ffffffffffffffffffffffffffffffffffffffff161415611d0f576040517f08c379a0000000000000000000000000000000000000000000000000000000008152600401611d0690612b6f565b60405180910390fd5b611d18816111ac565b15611d58576040517f08c379a0000000000000000000000000000000000000000000000000000000008152600401611d4f90612a6f565b60405180910390fd5b611d6460008383611aa8565b6001600360008473ffffffffffffffffffffffffffffffffffffffff1673ffffffffffffffffffffffffffffffffffffffff1681526020019081526020016000206000828254611db49190612da0565b92505081905550816002600083815260200190815260200160002060006101000a81548173ffffffffffffffffffffffffffffffffffffffff021916908373ffffffffffffffffffffffffffffffffffffffff160217905550808273ffffffffffffffffffffffffffffffffffffffff16600073ffffffffffffffffffffffffffffffffffffffff167fddf252ad1be2c89b69c2b068fc378daa952ba7f163c4a11628f55a4df523b3ef60405160405180910390a45050565b600080823b905060008111915050919050565b6000611e93611e8e84612d2d565b612cfc565b905082815260208101848484011115611eab57600080fd5b611eb6848285612ecf565b509392505050565b600081359050611ecd8161308a565b92915050565b600081359050611ee2816130a1565b92915050565b600081359050611ef7816130b8565b92915050565b600081519050611f0c816130b8565b92915050565b600082601f830112611f2357600080fd5b8135611f33848260208601611e80565b91505092915050565b600081359050611f4b816130cf565b92915050565b600060208284031215611f6357600080fd5b6000611f7184828501611ebe565b91505092915050565b60008060408385031215611f8d57600080fd5b6000611f9b85828601611ebe565b9250506020611fac85828601611ebe565b9150509250929050565b600080600060608486031215611fcb57600080fd5b6000611fd986828701611ebe565b9350506020611fea86828701611ebe565b9250506040611ffb86828701611f3c565b9150509250925092565b6000806000806080858703121561201b57600080fd5b600061202987828801611ebe565b945050602061203a87828801611ebe565b935050604061204b87828801611f3c565b925050606085013567ffffffffffffffff81111561206857600080fd5b61207487828801611f12565b91505092959194509250565b6000806040838503121561209357600080fd5b60006120a185828601611ebe565b92505060206120b285828601611ed3565b9150509250929050565b600080604083850312156120cf57600080fd5b60006120dd85828601611ebe565b92505060206120ee85828601611f3c565b9150509250929050565b60006020828403121561210a57600080fd5b600061211884828501611ee8565b91505092915050565b60006020828403121561213357600080fd5b600061214184828501611efd565b91505092915050565b60006020828403121561215c57600080fd5b600061216a84828501611f3c565b91505092915050565b6000806040838503121561218657600080fd5b600061219485828601611f3c565b92505060206121a585828601611f3c565b9150509250929050565b6121b881612e5b565b82525050565b6121c781612e6d565b82525050565b60006121d882612d5d565b6121e28185612d73565b93506121f2818560208601612ede565b6121fb81613079565b840191505092915050565b600061221182612d68565b61221b8185612d84565b935061222b818560208601612ede565b61223481613079565b840191505092915050565b600061224a82612d68565b6122548185612d95565b9350612264818560208601612ede565b80840191505092915050565b600061227d600c83612d84565b91507f6e6f7420666f6c6c6f77656400000000000000000000000000000000000000006000830152602082019050919050565b60006122bd603283612d84565b91507f4552433732313a207472616e7366657220746f206e6f6e20455243373231526560008301527f63656976657220696d706c656d656e74657200000000000000000000000000006020830152604082019050919050565b6000612323602683612d84565b91507f4f776e61626c653a206e6577206f776e657220697320746865207a65726f206160008301527f64647265737300000000000000000000000000000000000000000000000000006020830152604082019050919050565b6000612389601c83612d84565b91507f4552433732313a20746f6b656e20616c7265616479206d696e746564000000006000830152602082019050919050565b60006123c9600983612d84565b91507f6475706c696361746500000000000000000000000000000000000000000000006000830152602082019050919050565b6000612409602483612d84565b91507f4552433732313a207472616e7366657220746f20746865207a65726f2061646460008301527f72657373000000000000000000000000000000000000000000000000000000006020830152604082019050919050565b600061246f601983612d84565b91507f4552433732313a20617070726f766520746f2063616c6c6572000000000000006000830152602082019050919050565b60006124af602c83612d84565b91507f4552433732313a206f70657261746f7220717565727920666f72206e6f6e657860008301527f697374656e7420746f6b656e00000000000000000000000000000000000000006020830152604082019050919050565b6000612515603883612d84565b91507f4552433732313a20617070726f76652063616c6c6572206973206e6f74206f7760008301527f6e6572206e6f7220617070726f76656420666f7220616c6c00000000000000006020830152604082019050919050565b600061257b602a83612d84565b91507f4552433732313a2062616c616e636520717565727920666f7220746865207a6560008301527f726f2061646472657373000000000000000000000000000000000000000000006020830152604082019050919050565b60006125e1602983612d84565b91507f4552433732313a206f776e657220717565727920666f72206e6f6e657869737460008301527f656e7420746f6b656e00000000000000000000000000000000000000000000006020830152604082019050919050565b6000612647602083612d84565b91507f4552433732313a206d696e7420746f20746865207a65726f20616464726573736000830152602082019050919050565b6000612687602c83612d84565b91507f4552433732313a20617070726f76656420717565727920666f72206e6f6e657860008301527f697374656e7420746f6b656e00000000000000000000000000000000000000006020830152604082019050919050565b60006126ed602083612d84565b91507f4f776e61626c653a2063616c6c6572206973206e6f7420746865206f776e65726000830152602082019050919050565b600061272d600483612d84565b91507f73656c66000000000000000000000000000000000000000000000000000000006000830152602082019050919050565b600061276d602983612d84565b91507f4552433732313a207472616e73666572206f6620746f6b656e2074686174206960008301527f73206e6f74206f776e00000000000000000000000000000000000000000000006020830152604082019050919050565b60006127d3602f83612d84565b91507f4552433732314d657461646174613a2055524920717565727920666f72206e6f60008301527f6e6578697374656e7420746f6b656e00000000000000000000000000000000006020830152604082019050919050565b6000612839601083612d84565b91507f6d696e74206e6f7420616c6c6f776564000000000000000000000000000000006000830152602082019050919050565b6000612879602183612d84565b91507f4552433732313a20617070726f76616c20746f2063757272656e74206f776e6560008301527f72000000000000000000000000000000000000000000000000000000000000006020830152604082019050919050565b60006128df603183612d84565b91507f4552433732313a207472616e736665722063616c6c6572206973206e6f74206f60008301527f776e6572206e6f7220617070726f7665640000000000000000000000000000006020830152604082019050919050565b61294181612ec5565b82525050565b6000612953828561223f565b915061295f828461223f565b91508190509392505050565b600060208201905061298060008301846121af565b92915050565b600060808201905061299b60008301876121af565b6129a860208301866121af565b6129b56040830185612938565b81810360608301526129c781846121cd565b905095945050505050565b60006020820190506129e760008301846121be565b92915050565b60006020820190508181036000830152612a078184612206565b905092915050565b60006020820190508181036000830152612a2881612270565b9050919050565b60006020820190508181036000830152612a48816122b0565b9050919050565b60006020820190508181036000830152612a6881612316565b9050919050565b60006020820190508181036000830152612a888161237c565b9050919050565b60006020820190508181036000830152612aa8816123bc565b9050919050565b60006020820190508181036000830152612ac8816123fc565b9050919050565b60006020820190508181036000830152612ae881612462565b9050919050565b60006020820190508181036000830152612b08816124a2565b9050919050565b60006020820190508181036000830152612b2881612508565b9050919050565b60006020820190508181036000830152612b488161256e565b9050919050565b60006020820190508181036000830152612b68816125d4565b9050919050565b60006020820190508181036000830152612b888161263a565b9050919050565b60006020820190508181036000830152612ba88161267a565b9050919050565b60006020820190508181036000830152612bc8816126e0565b9050919050565b60006020820190508181036000830152612be881612720565b9050919050565b60006020820190508181036000830152612c0881612760565b9050919050565b60006020820190508181036000830152612c28816127c6565b9050919050565b60006020820190508181036000830152612c488161282c565b9050919050565b60006020820190508181036000830152612c688161286c565b9050919050565b60006020820190508181036000830152612c88816128d2565b9050919050565b6000602082019050612ca46000830184612938565b92915050565b6000604082019050612cbf6000830185612938565b612ccc60208301846121af565b9392505050565b6000604082019050612ce86000830185612938565b612cf56020830184612938565b9392505050565b6000604051905081810181811067ffffffffffffffff82111715612d2357612d2261304a565b5b8060405250919050565b600067ffffffffffffffff821115612d4857612d4761304a565b5b601f19601f8301169050602081019050919050565b600081519050919050565b600081519050919050565b600082825260208201905092915050565b600082825260208201905092915050565b600081905092915050565b6000612dab82612ec5565b9150612db683612ec5565b9250827fffffffffffffffffffffffffffffffffffffffffffffffffffffffffffffffff03821115612deb57612dea612fbd565b5b828201905092915050565b6000612e0182612ec5565b9150612e0c83612ec5565b925082612e1c57612e1b612fec565b5b828204905092915050565b6000612e3282612ec5565b9150612e3d83612ec5565b925082821015612e5057612e4f612fbd565b5b828203905092915050565b6000612e6682612ea5565b9050919050565b60008115159050919050565b60007fffffffff0000000000000000000000000000000000000000000000000000000082169050919050565b600073ffffffffffffffffffffffffffffffffffffffff82169050919050565b6000819050919050565b82818337600083830152505050565b60005b83811015612efc578082015181840152602081019050612ee1565b83811115612f0b576000848401525b50505050565b60006002820490506001821680612f2957607f821691505b60208210811415612f3d57612f3c61301b565b5b50919050565b6000612f4e82612ec5565b91507fffffffffffffffffffffffffffffffffffffffffffffffffffffffffffffffff821415612f8157612f80612fbd565b5b600182019050919050565b6000612f9782612ec5565b9150612fa283612ec5565b925082612fb257612fb1612fec565b5b828206905092915050565b7f4e487b7100000000000000000000000000000000000000000000000000000000600052601160045260246000fd5b7f4e487b7100000000000000000000000000000000000000000000000000000000600052601260045260246000fd5b7f4e487b7100000000000000000000000000000000000000000000000000000000600052602260045260246000fd5b7f4e487b7100000000000000000000000000000000000000000000000000000000600052604160045260246000fd5b6000601f19601f8301169050919050565b61309381612e5b565b811461309e57600080fd5b50565b6130aa81612e6d565b81146130b557600080fd5b50565b6130c181612e79565b81146130cc57600080fd5b50565b6130d881612ec5565b81146130e357600080fd5b5056fea2646970667358221220cf2701b92d90b97025c3567e4cc30b7e05f6763f63fa5fee8c94abbfa1e7a66964736f6c63430008000033",
  "linkReferences": {},
  "deployedLinkReferences": {}
}