{
  "_format": "hh-sol-artifact-1",
  "contractName": "ProfileGraph",
  "sourceName": "contracts/ProfileGraph.sol",
  "abi": [
    {
      "anonymous": false,
      "inputs": [
        {
          "indexed": true,
          "internalType": "address",
          "name": "owner",
          "type": "address"
        },
        {
          "indexed": true,
          "internalType": "address",
          "name": "approved",
          "type": "address"
        },
        {
          "indexed": true,
          "internalType": "uint256",
          "name": "tokenId",
          "type": "uint256"
        }
      ],
      "name": "Approval",
      "type": "event"
    },
    {
      "anonymous": false,
      "inputs": [
        {
          "indexed": true,
          "internalType": "address",
          "name": "owner",
          "type": "address"
        },
        {
          "indexed": true,
          "internalType": "address",
          "name": "operator",
          "type": "address"
        },
        {
          "indexed": false,
          "internalType": "bool",
          "name": "approved",
          "type": "bool"
        }
      ],
      "name": "ApprovalForAll",
      "type": "event"
    },
    {
      "anonymous": false,
      "inputs": [
        {
          "indexed": true,
          "internalType": "uint256",
          "name": "follower",
          "type": "uint256"
        },
        {
          "indexed": true,
          "internalType": "uint256",
          "name": "followed",
          "type": "uint256"
        }
      ],
      "name": "Follow",
      "type": "event"
    },
    {
      "anonymous": false,
      "inputs": [
        {
          "indexed": false,
          "internalType": "uint256",
          "name": "tokenId",
          "type": "uint256"
        },
        {
          "indexed": false,
          "internalType": "address",
          "name": "owner",
          "type": "address"
        }
      ],
      "name": "NewProfile",
      "type": "event"
    },
    {
      "anonymous": false,
      "inputs": [
        {
          "indexed": true,
          "internalType": "address",
          "name": "previousOwner",
          "type": "address"
        },
        {
          "indexed": true,
          "internalType": "address",
          "name": "newOwner",
          "type": "address"
        }
      ],
      "name": "OwnershipTransferred",
      "type": "event"
    },
    {
      "anonymous": false,
      "inputs": [
        {
          "indexed": true,
          "internalType": "uint256",
          "name": "tokenId",
          "type": "uint256"
        },
        {
          "indexed": false,
          "internalType": "address",
          "name": "avatarContract",
          "type": "address"
        },
        {
          "indexed": false,
          "internalType": "uint256",
          "name": "avatarId",
          "type": "uint256"
        },
        {
          "indexed": false,
          "internalType": "string",
          "name": "avatarURI",
          "type": "string"
        }
      ],
      "name": "SetAvatar",
      "type": "event"
    },
    {
      "anonymous": false,
      "inputs": [
        {
          "indexed": true,
          "internalType": "address",
          "name": "from",
          "type": "address"
        },
        {
          "indexed": true,
          "internalType": "address",
          "name": "to",
          "type": "address"
        },
        {
          "indexed": true,
          "internalType": "uint256",
          "name": "tokenId",
          "type": "uint256"
        }
      ],
      "name": "Transfer",
      "type": "event"
    },
    {
      "anonymous": false,
      "inputs": [
        {
          "indexed": true,
          "internalType": "uint256",
          "name": "follower",
          "type": "uint256"
        },
        {
          "indexed": true,
          "internalType": "uint256",
          "name": "unfollowed",
          "type": "uint256"
        }
      ],
      "name": "Unfollow",
      "type": "event"
    },
    {
      "inputs": [],
      "name": "_tokenIds",
      "outputs": [
        {
          "internalType": "uint256",
          "name": "_value",
          "type": "uint256"
        }
      ],
      "stateMutability": "view",
      "type": "function"
    },
    {
      "inputs": [
        {
          "internalType": "address",
          "name": "to",
          "type": "address"
        },
        {
          "internalType": "uint256",
          "name": "tokenId",
          "type": "uint256"
        }
      ],
      "name": "approve",
      "outputs": [],
      "stateMutability": "nonpayable",
      "type": "function"
    },
    {
      "inputs": [
        {
          "internalType": "address",
          "name": "owner",
          "type": "address"
        }
      ],
      "name": "balanceOf",
      "outputs": [
        {
          "internalType": "uint256",
          "name": "",
          "type": "uint256"
        }
      ],
      "stateMutability": "view",
      "type": "function"
    },
    {
      "inputs": [
        {
          "internalType": "uint256",
          "name": "toFollow",
          "type": "uint256"
        },
        {
          "internalType": "uint256",
          "name": "byFollower",
          "type": "uint256"
        }
      ],
      "name": "follow",
      "outputs": [],
      "stateMutability": "nonpayable",
      "type": "function"
    },
    {
      "inputs": [
        {
          "internalType": "uint256",
          "name": "",
          "type": "uint256"
        },
        {
          "internalType": "uint256",
          "name": "",
          "type": "uint256"
        }
      ],
      "name": "followings",
      "outputs": [
        {
          "internalType": "bool",
          "name": "",
          "type": "bool"
        }
      ],
      "stateMutability": "view",
      "type": "function"
    },
    {
      "inputs": [
        {
          "internalType": "uint256",
          "name": "tokenId",
          "type": "uint256"
        }
      ],
      "name": "getApproved",
      "outputs": [
        {
          "internalType": "address",
          "name": "",
          "type": "address"
        }
      ],
      "stateMutability": "view",
      "type": "function"
    },
    {
      "inputs": [
        {
          "internalType": "address",
          "name": "owner",
          "type": "address"
        },
        {
          "internalType": "address",
          "name": "operator",
          "type": "address"
        }
      ],
      "name": "isApprovedForAll",
      "outputs": [
        {
          "internalType": "bool",
          "name": "",
          "type": "bool"
        }
      ],
      "stateMutability": "view",
      "type": "function"
    },
    {
      "inputs": [
        {
          "internalType": "address",
          "name": "to",
          "type": "address"
        }
      ],
      "name": "mint",
      "outputs": [
        {
          "internalType": "uint256",
          "name": "",
          "type": "uint256"
        }
      ],
      "stateMutability": "nonpayable",
      "type": "function"
    },
    {
      "inputs": [],
      "name": "name",
      "outputs": [
        {
          "internalType": "string",
          "name": "",
          "type": "string"
        }
      ],
      "stateMutability": "view",
      "type": "function"
    },
    {
      "inputs": [],
      "name": "owner",
      "outputs": [
        {
          "internalType": "address",
          "name": "",
          "type": "address"
        }
      ],
      "stateMutability": "view",
      "type": "function"
    },
    {
      "inputs": [
        {
          "internalType": "uint256",
          "name": "tokenId",
          "type": "uint256"
        }
      ],
      "name": "ownerOf",
      "outputs": [
        {
          "internalType": "address",
          "name": "",
          "type": "address"
        }
      ],
      "stateMutability": "view",
      "type": "function"
    },
    {
      "inputs": [],
      "name": "renounceOwnership",
      "outputs": [],
      "stateMutability": "nonpayable",
      "type": "function"
    },
    {
      "inputs": [
        {
          "internalType": "address",
          "name": "from",
          "type": "address"
        },
        {
          "internalType": "address",
          "name": "to",
          "type": "address"
        },
        {
          "internalType": "uint256",
          "name": "tokenId",
          "type": "uint256"
        }
      ],
      "name": "safeTransferFrom",
      "outputs": [],
      "stateMutability": "nonpayable",
      "type": "function"
    },
    {
      "inputs": [
        {
          "internalType": "address",
          "name": "from",
          "type": "address"
        },
        {
          "internalType": "address",
          "name": "to",
          "type": "address"
        },
        {
          "internalType": "uint256",
          "name": "tokenId",
          "type": "uint256"
        },
        {
          "internalType": "bytes",
          "name": "_data",
          "type": "bytes"
        }
      ],
      "name": "safeTransferFrom",
      "outputs": [],
      "stateMutability": "nonpayable",
      "type": "function"
    },
    {
      "inputs": [
        {
          "internalType": "address",
          "name": "operator",
          "type": "address"
        },
        {
          "internalType": "bool",
          "name": "approved",
          "type": "bool"
        }
      ],
      "name": "setApprovalForAll",
      "outputs": [],
      "stateMutability": "nonpayable",
      "type": "function"
    },
    {
      "inputs": [
        {
          "internalType": "address",
          "name": "avatarContractAddrs",
          "type": "address"
        },
        {
          "internalType": "uint256",
          "name": "avatarTokenId",
          "type": "uint256"
        },
        {
          "internalType": "uint256",
          "name": "niftyTokenId",
          "type": "uint256"
        }
      ],
      "name": "setAvatar",
      "outputs": [],
      "stateMutability": "nonpayable",
      "type": "function"
    },
    {
      "inputs": [
        {
          "internalType": "bytes4",
          "name": "interfaceId",
          "type": "bytes4"
        }
      ],
      "name": "supportsInterface",
      "outputs": [
        {
          "internalType": "bool",
          "name": "",
          "type": "bool"
        }
      ],
      "stateMutability": "view",
      "type": "function"
    },
    {
      "inputs": [],
      "name": "symbol",
      "outputs": [
        {
          "internalType": "string",
          "name": "",
          "type": "string"
        }
      ],
      "stateMutability": "view",
      "type": "function"
    },
    {
      "inputs": [
        {
          "internalType": "uint256",
          "name": "niftyTokenId",
          "type": "uint256"
        }
      ],
      "name": "tokenURI",
      "outputs": [
        {
          "internalType": "string",
          "name": "",
          "type": "string"
        }
      ],
      "stateMutability": "view",
      "type": "function"
    },
    {
      "inputs": [
        {
          "internalType": "address",
          "name": "from",
          "type": "address"
        },
        {
          "internalType": "address",
          "name": "to",
          "type": "address"
        },
        {
          "internalType": "uint256",
          "name": "tokenId",
          "type": "uint256"
        }
      ],
      "name": "transferFrom",
      "outputs": [],
      "stateMutability": "nonpayable",
      "type": "function"
    },
    {
      "inputs": [
        {
          "internalType": "address",
          "name": "newOwner",
          "type": "address"
        }
      ],
      "name": "transferOwnership",
      "outputs": [],
      "stateMutability": "nonpayable",
      "type": "function"
    },
    {
      "inputs": [
        {
          "internalType": "uint256",
          "name": "toUnfollow",
          "type": "uint256"
        },
        {
          "internalType": "uint256",
          "name": "byFollower",
          "type": "uint256"
        }
      ],
      "name": "unfollow",
      "outputs": [],
      "stateMutability": "nonpayable",
      "type": "function"
    }
  ],
  "bytecode": "0x60806040523480156200001157600080fd5b506040518060400160405280600c81526020017f4e69667479436f6e6e65637400000000000000000000000000000000000000008152506040518060400160405280600481526020017f4e46544300000000000000000000000000000000000000000000000000000000815250816000908051906020019062000096929190620001a6565b508060019080519060200190620000af929190620001a6565b505050620000d2620000c6620000d860201b60201c565b620000e060201b60201c565b620002bb565b600033905090565b6000600660009054906101000a900473ffffffffffffffffffffffffffffffffffffffff16905081600660006101000a81548173ffffffffffffffffffffffffffffffffffffffff021916908373ffffffffffffffffffffffffffffffffffffffff1602179055508173ffffffffffffffffffffffffffffffffffffffff168173ffffffffffffffffffffffffffffffffffffffff167f8be0079c531659141344cd1fd0a4f28419497f9722a3daafe3b4186f6b6457e060405160405180910390a35050565b828054620001b49062000256565b90600052602060002090601f016020900481019282620001d8576000855562000224565b82601f10620001f357805160ff191683800117855562000224565b8280016001018555821562000224579182015b828111156200022357825182559160200191906001019062000206565b5b50905062000233919062000237565b5090565b5b808211156200025257600081600090555060010162000238565b5090565b600060028204905060018216806200026f57607f821691505b602082108114156200028657620002856200028c565b5b50919050565b7f4e487b7100000000000000000000000000000000000000000000000000000000600052602260045260246000fd5b61345080620002cb6000396000f3fe608060405234801561001057600080fd5b50600436106101425760003560e01c8063821defc2116100b8578063b88d4fde1161007c578063b88d4fde14610361578063c87b56dd1461037d578063e985e9c5146103ad578063f2fde38b146103dd578063f407eb1a146103f9578063fb1bf05d1461042957610142565b8063821defc2146102cf5780638da5cb5b146102eb57806395d89b4114610309578063a22cb46514610327578063aa46a4001461034357610142565b806338bede6b1161010a57806338bede6b146101fd57806342842e0e146102195780636352211e146102355780636a6278421461026557806370a0823114610295578063715018a6146102c557610142565b806301ffc9a71461014757806306fdde0314610177578063081812fc14610195578063095ea7b3146101c557806323b872dd146101e1575b600080fd5b610161600480360381019061015c91906123e6565b610445565b60405161016e9190612d84565b60405180910390f35b61017f610527565b60405161018c9190612d9f565b60405180910390f35b6101af60048036038101906101aa9190612479565b6105b9565b6040516101bc9190612cdf565b60405180910390f35b6101df60048036038101906101da919061235b565b61063e565b005b6101fb60048036038101906101f69190612255565b610756565b005b61021760048036038101906102129190612397565b6107b6565b005b610233600480360381019061022e9190612255565b610a6c565b005b61024f600480360381019061024a9190612479565b610a8c565b60405161025c9190612cdf565b60405180910390f35b61027f600480360381019061027a91906121c7565b610b3e565b60405161028c91906130a1565b60405180910390f35b6102af60048036038101906102aa91906121c7565b610c4f565b6040516102bc91906130a1565b60405180910390f35b6102cd610d07565b005b6102e960048036038101906102e491906124a2565b610d8f565b005b6102f3610f31565b6040516103009190612cdf565b60405180910390f35b610311610f5b565b60405161031e9190612d9f565b60405180910390f35b610341600480360381019061033c919061231f565b610fed565b005b61034b611003565b60405161035891906130a1565b60405180910390f35b61037b600480360381019061037691906122a4565b61100f565b005b61039760048036038101906103929190612479565b611071565b6040516103a49190612d9f565b60405180910390f35b6103c760048036038101906103c29190612219565b6111a2565b6040516103d49190612d84565b60405180910390f35b6103f760048036038101906103f291906121c7565b611236565b005b610413600480360381019061040e91906124a2565b61132e565b6040516104209190612d84565b60405180910390f35b610443600480360381019061043e91906124a2565b61135d565b005b60007f80ac58cd000000000000000000000000000000000000000000000000000000007bffffffffffffffffffffffffffffffffffffffffffffffffffffffff1916827bffffffffffffffffffffffffffffffffffffffffffffffffffffffff1916148061051057507f5b5e139f000000000000000000000000000000000000000000000000000000007bffffffffffffffffffffffffffffffffffffffffffffffffffffffff1916827bffffffffffffffffffffffffffffffffffffffffffffffffffffffff1916145b80610520575061051f826114ff565b5b9050919050565b606060008054610536906132ee565b80601f0160208091040260200160405190810160405280929190818152602001828054610562906132ee565b80156105af5780601f10610584576101008083540402835291602001916105af565b820191906000526020600020905b81548152906001019060200180831161059257829003601f168201915b5050505050905090565b60006105c482611569565b610603576040517f08c379a00000000000000000000000000000000000000000000000000000000081526004016105fa90612f81565b60405180910390fd5b6004600083815260200190815260200160002060009054906101000a900473ffffffffffffffffffffffffffffffffffffffff169050919050565b600061064982610a8c565b90508073ffffffffffffffffffffffffffffffffffffffff168373ffffffffffffffffffffffffffffffffffffffff1614156106ba576040517f08c379a00000000000000000000000000000000000000000000000000000000081526004016106b190613021565b60405180910390fd5b8073ffffffffffffffffffffffffffffffffffffffff166106d96115d5565b73ffffffffffffffffffffffffffffffffffffffff1614806107085750610707816107026115d5565b6111a2565b5b610747576040517f08c379a000000000000000000000000000000000000000000000000000000000815260040161073e90612f01565b60405180910390fd5b61075183836115dd565b505050565b6107676107616115d5565b82611696565b6107a6576040517f08c379a000000000000000000000000000000000000000000000000000000000815260040161079d90613061565b60405180910390fd5b6107b1838383611774565b505050565b6107bf81610a8c565b73ffffffffffffffffffffffffffffffffffffffff163373ffffffffffffffffffffffffffffffffffffffff161461082c576040517f08c379a000000000000000000000000000000000000000000000000000000000815260040161082390612e61565b60405180910390fd5b60008390508073ffffffffffffffffffffffffffffffffffffffff16636352211e846040518263ffffffff1660e01b815260040161086a91906130a1565b60206040518083038186803b15801561088257600080fd5b505afa158015610896573d6000803e3d6000fd5b505050506040513d601f19601f820116820180604052508101906108ba91906121f0565b73ffffffffffffffffffffffffffffffffffffffff163373ffffffffffffffffffffffffffffffffffffffff1614610927576040517f08c379a000000000000000000000000000000000000000000000000000000000815260040161091e90613041565b60405180910390fd5b836008600084815260200190815260200160002060000160006101000a81548173ffffffffffffffffffffffffffffffffffffffff021916908373ffffffffffffffffffffffffffffffffffffffff16021790555082600860008481526020019081526020016000206001018190555060008173ffffffffffffffffffffffffffffffffffffffff1663c87b56dd856040518263ffffffff1660e01b81526004016109d291906130a1565b60006040518083038186803b1580156109ea57600080fd5b505afa1580156109fe573d6000803e3d6000fd5b505050506040513d6000823e3d601f19601f82011682018060405250810190610a279190612438565b9050827fbb6d66496ef33e31f1bd0f0e9c9f1e900e695aefc02615d2859e305190b86492868684604051610a5d93929190612d46565b60405180910390a25050505050565b610a878383836040518060200160405280600081525061100f565b505050565b6000806002600084815260200190815260200160002060009054906101000a900473ffffffffffffffffffffffffffffffffffffffff169050600073ffffffffffffffffffffffffffffffffffffffff168173ffffffffffffffffffffffffffffffffffffffff161415610b35576040517f08c379a0000000000000000000000000000000000000000000000000000000008152600401610b2c90612f41565b60405180910390fd5b80915050919050565b6000610b48610f31565b73ffffffffffffffffffffffffffffffffffffffff163373ffffffffffffffffffffffffffffffffffffffff161480610bac57508173ffffffffffffffffffffffffffffffffffffffff163373ffffffffffffffffffffffffffffffffffffffff16145b610beb576040517f08c379a0000000000000000000000000000000000000000000000000000000008152600401610be290613001565b60405180910390fd5b6000610bf760076119d0565b9050610c0383826119de565b7ff77721877cc609f5dfdedb32c3763b24fea3a928c62b5e2c5675cceb8f56c20c8184604051610c349291906130bc565b60405180910390a1610c4660076119fc565b80915050919050565b60008073ffffffffffffffffffffffffffffffffffffffff168273ffffffffffffffffffffffffffffffffffffffff161415610cc0576040517f08c379a0000000000000000000000000000000000000000000000000000000008152600401610cb790612f21565b60405180910390fd5b600360008373ffffffffffffffffffffffffffffffffffffffff1673ffffffffffffffffffffffffffffffffffffffff168152602001908152602001600020549050919050565b610d0f6115d5565b73ffffffffffffffffffffffffffffffffffffffff16610d2d610f31565b73ffffffffffffffffffffffffffffffffffffffff1614610d83576040517f08c379a0000000000000000000000000000000000000000000000000000000008152600401610d7a90612fa1565b60405180910390fd5b610d8d6000611a12565b565b80610d9981610a8c565b73ffffffffffffffffffffffffffffffffffffffff163373ffffffffffffffffffffffffffffffffffffffff1614610e06576040517f08c379a0000000000000000000000000000000000000000000000000000000008152600401610dfd90613081565b60405180910390fd5b81831415610e49576040517f08c379a0000000000000000000000000000000000000000000000000000000008152600401610e4090612fc1565b60405180910390fd5b6000151560096000848152602001908152602001600020600085815260200190815260200160002060009054906101000a900460ff16151514610ec1576040517f08c379a0000000000000000000000000000000000000000000000000000000008152600401610eb890612e81565b60405180910390fd5b600160096000848152602001908152602001600020600085815260200190815260200160002060006101000a81548160ff02191690831515021790555082827f16bdce19402ca7cda2d248f7d08b6942b5939bc270a9ec3fb323b113fea05b5060405160405180910390a3505050565b6000600660009054906101000a900473ffffffffffffffffffffffffffffffffffffffff16905090565b606060018054610f6a906132ee565b80601f0160208091040260200160405190810160405280929190818152602001828054610f96906132ee565b8015610fe35780601f10610fb857610100808354040283529160200191610fe3565b820191906000526020600020905b815481529060010190602001808311610fc657829003601f168201915b5050505050905090565b610fff610ff86115d5565b8383611ad8565b5050565b60078060000154905081565b61102061101a6115d5565b83611696565b61105f576040517f08c379a000000000000000000000000000000000000000000000000000000000815260040161105690613061565b60405180910390fd5b61106b84848484611c45565b50505050565b606061107c82611569565b6110bb576040517f08c379a00000000000000000000000000000000000000000000000000000000081526004016110b290612dc1565b60405180910390fd5b60006008600084815260200190815260200160002060000160009054906101000a900473ffffffffffffffffffffffffffffffffffffffff1690508073ffffffffffffffffffffffffffffffffffffffff1663c87b56dd60086000868152602001908152602001600020600101546040518263ffffffff1660e01b815260040161114591906130a1565b60006040518083038186803b15801561115d57600080fd5b505afa158015611171573d6000803e3d6000fd5b505050506040513d6000823e3d601f19601f8201168201806040525081019061119a9190612438565b915050919050565b6000600560008473ffffffffffffffffffffffffffffffffffffffff1673ffffffffffffffffffffffffffffffffffffffff16815260200190815260200160002060008373ffffffffffffffffffffffffffffffffffffffff1673ffffffffffffffffffffffffffffffffffffffff16815260200190815260200160002060009054906101000a900460ff16905092915050565b61123e6115d5565b73ffffffffffffffffffffffffffffffffffffffff1661125c610f31565b73ffffffffffffffffffffffffffffffffffffffff16146112b2576040517f08c379a00000000000000000000000000000000000000000000000000000000081526004016112a990612fa1565b60405180910390fd5b600073ffffffffffffffffffffffffffffffffffffffff168173ffffffffffffffffffffffffffffffffffffffff161415611322576040517f08c379a000000000000000000000000000000000000000000000000000000000815260040161131990612e21565b60405180910390fd5b61132b81611a12565b50565b60096020528160005260406000206020528060005260406000206000915091509054906101000a900460ff1681565b8061136781610a8c565b73ffffffffffffffffffffffffffffffffffffffff163373ffffffffffffffffffffffffffffffffffffffff16146113d4576040517f08c379a00000000000000000000000000000000000000000000000000000000081526004016113cb90613081565b60405180910390fd5b81831415611417576040517f08c379a000000000000000000000000000000000000000000000000000000000815260040161140e90612fc1565b60405180910390fd5b6001151560096000848152602001908152602001600020600085815260200190815260200160002060009054906101000a900460ff1615151461148f576040517f08c379a000000000000000000000000000000000000000000000000000000000815260040161148690612de1565b60405180910390fd5b600060096000848152602001908152602001600020600085815260200190815260200160002060006101000a81548160ff02191690831515021790555082827f22d41f5ffb7660f21fcd3ac33e0bb7ac33fc5e8dae600b55e4c1ce58222cd29160405160405180910390a3505050565b60007f01ffc9a7000000000000000000000000000000000000000000000000000000007bffffffffffffffffffffffffffffffffffffffffffffffffffffffff1916827bffffffffffffffffffffffffffffffffffffffffffffffffffffffff1916149050919050565b60008073ffffffffffffffffffffffffffffffffffffffff166002600084815260200190815260200160002060009054906101000a900473ffffffffffffffffffffffffffffffffffffffff1673ffffffffffffffffffffffffffffffffffffffff1614159050919050565b600033905090565b816004600083815260200190815260200160002060006101000a81548173ffffffffffffffffffffffffffffffffffffffff021916908373ffffffffffffffffffffffffffffffffffffffff160217905550808273ffffffffffffffffffffffffffffffffffffffff1661165083610a8c565b73ffffffffffffffffffffffffffffffffffffffff167f8c5be1e5ebec7d5bd14f71427d1e84f3dd0314c0f7b2291e5b200ac8c7c3b92560405160405180910390a45050565b60006116a182611569565b6116e0576040517f08c379a00000000000000000000000000000000000000000000000000000000081526004016116d790612ee1565b60405180910390fd5b60006116eb83610a8c565b90508073ffffffffffffffffffffffffffffffffffffffff168473ffffffffffffffffffffffffffffffffffffffff16148061175a57508373ffffffffffffffffffffffffffffffffffffffff16611742846105b9565b73ffffffffffffffffffffffffffffffffffffffff16145b8061176b575061176a81856111a2565b5b91505092915050565b8273ffffffffffffffffffffffffffffffffffffffff1661179482610a8c565b73ffffffffffffffffffffffffffffffffffffffff16146117ea576040517f08c379a00000000000000000000000000000000000000000000000000000000081526004016117e190612fe1565b60405180910390fd5b600073ffffffffffffffffffffffffffffffffffffffff168273ffffffffffffffffffffffffffffffffffffffff16141561185a576040517f08c379a000000000000000000000000000000000000000000000000000000000815260040161185190612ea1565b60405180910390fd5b611865838383611ca1565b6118706000826115dd565b6001600360008573ffffffffffffffffffffffffffffffffffffffff1673ffffffffffffffffffffffffffffffffffffffff16815260200190815260200160002060008282546118c09190613204565b925050819055506001600360008473ffffffffffffffffffffffffffffffffffffffff1673ffffffffffffffffffffffffffffffffffffffff168152602001908152602001600020600082825461191791906131ae565b92505081905550816002600083815260200190815260200160002060006101000a81548173ffffffffffffffffffffffffffffffffffffffff021916908373ffffffffffffffffffffffffffffffffffffffff160217905550808273ffffffffffffffffffffffffffffffffffffffff168473ffffffffffffffffffffffffffffffffffffffff167fddf252ad1be2c89b69c2b068fc378daa952ba7f163c4a11628f55a4df523b3ef60405160405180910390a4505050565b600081600001549050919050565b6119f8828260405180602001604052806000815250611ca6565b5050565b6001816000016000828254019250508190555050565b6000600660009054906101000a900473ffffffffffffffffffffffffffffffffffffffff16905081600660006101000a81548173ffffffffffffffffffffffffffffffffffffffff021916908373ffffffffffffffffffffffffffffffffffffffff1602179055508173ffffffffffffffffffffffffffffffffffffffff168173ffffffffffffffffffffffffffffffffffffffff167f8be0079c531659141344cd1fd0a4f28419497f9722a3daafe3b4186f6b6457e060405160405180910390a35050565b8173ffffffffffffffffffffffffffffffffffffffff168373ffffffffffffffffffffffffffffffffffffffff161415611b47576040517f08c379a0000000000000000000000000000000000000000000000000000000008152600401611b3e90612ec1565b60405180910390fd5b80600560008573ffffffffffffffffffffffffffffffffffffffff1673ffffffffffffffffffffffffffffffffffffffff16815260200190815260200160002060008473ffffffffffffffffffffffffffffffffffffffff1673ffffffffffffffffffffffffffffffffffffffff16815260200190815260200160002060006101000a81548160ff0219169083151502179055508173ffffffffffffffffffffffffffffffffffffffff168373ffffffffffffffffffffffffffffffffffffffff167f17307eab39ab6107e8899845ad3d59bd9653f200f220920489ca2b5937696c3183604051611c389190612d84565b60405180910390a3505050565b611c50848484611774565b611c5c84848484611d01565b611c9b576040517f08c379a0000000000000000000000000000000000000000000000000000000008152600401611c9290612e01565b60405180910390fd5b50505050565b505050565b611cb08383611e98565b611cbd6000848484611d01565b611cfc576040517f08c379a0000000000000000000000000000000000000000000000000000000008152600401611cf390612e01565b60405180910390fd5b505050565b6000611d228473ffffffffffffffffffffffffffffffffffffffff16612066565b15611e8b578373ffffffffffffffffffffffffffffffffffffffff1663150b7a02611d4b6115d5565b8786866040518563ffffffff1660e01b8152600401611d6d9493929190612cfa565b602060405180830381600087803b158015611d8757600080fd5b505af1925050508015611db857506040513d601f19601f82011682018060405250810190611db5919061240f565b60015b611e3b573d8060008114611de8576040519150601f19603f3d011682016040523d82523d6000602084013e611ded565b606091505b50600081511415611e33576040517f08c379a0000000000000000000000000000000000000000000000000000000008152600401611e2a90612e01565b60405180910390fd5b805181602001fd5b63150b7a0260e01b7bffffffffffffffffffffffffffffffffffffffffffffffffffffffff1916817bffffffffffffffffffffffffffffffffffffffffffffffffffffffff191614915050611e90565b600190505b949350505050565b600073ffffffffffffffffffffffffffffffffffffffff168273ffffffffffffffffffffffffffffffffffffffff161415611f08576040517f08c379a0000000000000000000000000000000000000000000000000000000008152600401611eff90612f61565b60405180910390fd5b611f1181611569565b15611f51576040517f08c379a0000000000000000000000000000000000000000000000000000000008152600401611f4890612e41565b60405180910390fd5b611f5d60008383611ca1565b6001600360008473ffffffffffffffffffffffffffffffffffffffff1673ffffffffffffffffffffffffffffffffffffffff1681526020019081526020016000206000828254611fad91906131ae565b92505081905550816002600083815260200190815260200160002060006101000a81548173ffffffffffffffffffffffffffffffffffffffff021916908373ffffffffffffffffffffffffffffffffffffffff160217905550808273ffffffffffffffffffffffffffffffffffffffff16600073ffffffffffffffffffffffffffffffffffffffff167fddf252ad1be2c89b69c2b068fc378daa952ba7f163c4a11628f55a4df523b3ef60405160405180910390a45050565b600080823b905060008111915050919050565b600061208c61208784613116565b6130e5565b9050828152602081018484840111156120a457600080fd5b6120af8482856132ac565b509392505050565b60006120ca6120c584613146565b6130e5565b9050828152602081018484840111156120e257600080fd5b6120ed8482856132bb565b509392505050565b600081359050612104816133be565b92915050565b600081519050612119816133be565b92915050565b60008135905061212e816133d5565b92915050565b600081359050612143816133ec565b92915050565b600081519050612158816133ec565b92915050565b600082601f83011261216f57600080fd5b813561217f848260208601612079565b91505092915050565b600082601f83011261219957600080fd5b81516121a98482602086016120b7565b91505092915050565b6000813590506121c181613403565b92915050565b6000602082840312156121d957600080fd5b60006121e7848285016120f5565b91505092915050565b60006020828403121561220257600080fd5b60006122108482850161210a565b91505092915050565b6000806040838503121561222c57600080fd5b600061223a858286016120f5565b925050602061224b858286016120f5565b9150509250929050565b60008060006060848603121561226a57600080fd5b6000612278868287016120f5565b9350506020612289868287016120f5565b925050604061229a868287016121b2565b9150509250925092565b600080600080608085870312156122ba57600080fd5b60006122c8878288016120f5565b94505060206122d9878288016120f5565b93505060406122ea878288016121b2565b925050606085013567ffffffffffffffff81111561230757600080fd5b6123138782880161215e565b91505092959194509250565b6000806040838503121561233257600080fd5b6000612340858286016120f5565b92505060206123518582860161211f565b9150509250929050565b6000806040838503121561236e57600080fd5b600061237c858286016120f5565b925050602061238d858286016121b2565b9150509250929050565b6000806000606084860312156123ac57600080fd5b60006123ba868287016120f5565b93505060206123cb868287016121b2565b92505060406123dc868287016121b2565b9150509250925092565b6000602082840312156123f857600080fd5b600061240684828501612134565b91505092915050565b60006020828403121561242157600080fd5b600061242f84828501612149565b91505092915050565b60006020828403121561244a57600080fd5b600082015167ffffffffffffffff81111561246457600080fd5b61247084828501612188565b91505092915050565b60006020828403121561248b57600080fd5b6000612499848285016121b2565b91505092915050565b600080604083850312156124b557600080fd5b60006124c3858286016121b2565b92505060206124d4858286016121b2565b9150509250929050565b6124e781613238565b82525050565b6124f68161324a565b82525050565b600061250782613176565b612511818561318c565b93506125218185602086016132bb565b61252a816133ad565b840191505092915050565b600061254082613181565b61254a818561319d565b935061255a8185602086016132bb565b612563816133ad565b840191505092915050565b600061257b60128361319d565b91507f6e6f6e2d6578697374656e7420746f6b656e00000000000000000000000000006000830152602082019050919050565b60006125bb600c8361319d565b91507f6e6f7420666f6c6c6f77656400000000000000000000000000000000000000006000830152602082019050919050565b60006125fb60328361319d565b91507f4552433732313a207472616e7366657220746f206e6f6e20455243373231526560008301527f63656976657220696d706c656d656e74657200000000000000000000000000006020830152604082019050919050565b600061266160268361319d565b91507f4f776e61626c653a206e6577206f776e657220697320746865207a65726f206160008301527f64647265737300000000000000000000000000000000000000000000000000006020830152604082019050919050565b60006126c7601c8361319d565b91507f4552433732313a20746f6b656e20616c7265616479206d696e746564000000006000830152602082019050919050565b600061270760118361319d565b91507f6e6f742070726f66696c65206f776e65720000000000000000000000000000006000830152602082019050919050565b600061274760098361319d565b91507f6475706c696361746500000000000000000000000000000000000000000000006000830152602082019050919050565b600061278760248361319d565b91507f4552433732313a207472616e7366657220746f20746865207a65726f2061646460008301527f72657373000000000000000000000000000000000000000000000000000000006020830152604082019050919050565b60006127ed60198361319d565b91507f4552433732313a20617070726f766520746f2063616c6c6572000000000000006000830152602082019050919050565b600061282d602c8361319d565b91507f4552433732313a206f70657261746f7220717565727920666f72206e6f6e657860008301527f697374656e7420746f6b656e00000000000000000000000000000000000000006020830152604082019050919050565b600061289360388361319d565b91507f4552433732313a20617070726f76652063616c6c6572206973206e6f74206f7760008301527f6e6572206e6f7220617070726f76656420666f7220616c6c00000000000000006020830152604082019050919050565b60006128f9602a8361319d565b91507f4552433732313a2062616c616e636520717565727920666f7220746865207a6560008301527f726f2061646472657373000000000000000000000000000000000000000000006020830152604082019050919050565b600061295f60298361319d565b91507f4552433732313a206f776e657220717565727920666f72206e6f6e657869737460008301527f656e7420746f6b656e00000000000000000000000000000000000000000000006020830152604082019050919050565b60006129c560208361319d565b91507f4552433732313a206d696e7420746f20746865207a65726f20616464726573736000830152602082019050919050565b6000612a05602c8361319d565b91507f4552433732313a20617070726f76656420717565727920666f72206e6f6e657860008301527f697374656e7420746f6b656e00000000000000000000000000000000000000006020830152604082019050919050565b6000612a6b60208361319d565b91507f4f776e61626c653a2063616c6c6572206973206e6f7420746865206f776e65726000830152602082019050919050565b6000612aab60048361319d565b91507f73656c66000000000000000000000000000000000000000000000000000000006000830152602082019050919050565b6000612aeb60298361319d565b91507f4552433732313a207472616e73666572206f6620746f6b656e2074686174206960008301527f73206e6f74206f776e00000000000000000000000000000000000000000000006020830152604082019050919050565b6000612b5160108361319d565b91507f6d696e74206e6f7420616c6c6f776564000000000000000000000000000000006000830152602082019050919050565b6000612b9160218361319d565b91507f4552433732313a20617070726f76616c20746f2063757272656e74206f776e6560008301527f72000000000000000000000000000000000000000000000000000000000000006020830152604082019050919050565b6000612bf760108361319d565b91507f6e6f7420617661746172206f776e6572000000000000000000000000000000006000830152602082019050919050565b6000612c3760318361319d565b91507f4552433732313a207472616e736665722063616c6c6572206973206e6f74206f60008301527f776e6572206e6f7220617070726f7665640000000000000000000000000000006020830152604082019050919050565b6000612c9d60098361319d565b91507f6e6f74206f776e657200000000000000000000000000000000000000000000006000830152602082019050919050565b612cd9816132a2565b82525050565b6000602082019050612cf460008301846124de565b92915050565b6000608082019050612d0f60008301876124de565b612d1c60208301866124de565b612d296040830185612cd0565b8181036060830152612d3b81846124fc565b905095945050505050565b6000606082019050612d5b60008301866124de565b612d686020830185612cd0565b8181036040830152612d7a8184612535565b9050949350505050565b6000602082019050612d9960008301846124ed565b92915050565b60006020820190508181036000830152612db98184612535565b905092915050565b60006020820190508181036000830152612dda8161256e565b9050919050565b60006020820190508181036000830152612dfa816125ae565b9050919050565b60006020820190508181036000830152612e1a816125ee565b9050919050565b60006020820190508181036000830152612e3a81612654565b9050919050565b60006020820190508181036000830152612e5a816126ba565b9050919050565b60006020820190508181036000830152612e7a816126fa565b9050919050565b60006020820190508181036000830152612e9a8161273a565b9050919050565b60006020820190508181036000830152612eba8161277a565b9050919050565b60006020820190508181036000830152612eda816127e0565b9050919050565b60006020820190508181036000830152612efa81612820565b9050919050565b60006020820190508181036000830152612f1a81612886565b9050919050565b60006020820190508181036000830152612f3a816128ec565b9050919050565b60006020820190508181036000830152612f5a81612952565b9050919050565b60006020820190508181036000830152612f7a816129b8565b9050919050565b60006020820190508181036000830152612f9a816129f8565b9050919050565b60006020820190508181036000830152612fba81612a5e565b9050919050565b60006020820190508181036000830152612fda81612a9e565b9050919050565b60006020820190508181036000830152612ffa81612ade565b9050919050565b6000602082019050818103600083015261301a81612b44565b9050919050565b6000602082019050818103600083015261303a81612b84565b9050919050565b6000602082019050818103600083015261305a81612bea565b9050919050565b6000602082019050818103600083015261307a81612c2a565b9050919050565b6000602082019050818103600083015261309a81612c90565b9050919050565b60006020820190506130b66000830184612cd0565b92915050565b60006040820190506130d16000830185612cd0565b6130de60208301846124de565b9392505050565b6000604051905081810181811067ffffffffffffffff8211171561310c5761310b61337e565b5b8060405250919050565b600067ffffffffffffffff8211156131315761313061337e565b5b601f19601f8301169050602081019050919050565b600067ffffffffffffffff8211156131615761316061337e565b5b601f19601f8301169050602081019050919050565b600081519050919050565b600081519050919050565b600082825260208201905092915050565b600082825260208201905092915050565b60006131b9826132a2565b91506131c4836132a2565b9250827fffffffffffffffffffffffffffffffffffffffffffffffffffffffffffffffff038211156131f9576131f8613320565b5b828201905092915050565b600061320f826132a2565b915061321a836132a2565b92508282101561322d5761322c613320565b5b828203905092915050565b600061324382613282565b9050919050565b60008115159050919050565b60007fffffffff0000000000000000000000000000000000000000000000000000000082169050919050565b600073ffffffffffffffffffffffffffffffffffffffff82169050919050565b6000819050919050565b82818337600083830152505050565b60005b838110156132d95780820151818401526020810190506132be565b838111156132e8576000848401525b50505050565b6000600282049050600182168061330657607f821691505b6020821081141561331a5761331961334f565b5b50919050565b7f4e487b7100000000000000000000000000000000000000000000000000000000600052601160045260246000fd5b7f4e487b7100000000000000000000000000000000000000000000000000000000600052602260045260246000fd5b7f4e487b7100000000000000000000000000000000000000000000000000000000600052604160045260246000fd5b6000601f19601f8301169050919050565b6133c781613238565b81146133d257600080fd5b50565b6133de8161324a565b81146133e957600080fd5b50565b6133f581613256565b811461340057600080fd5b50565b61340c816132a2565b811461341757600080fd5b5056fea2646970667358221220a68e4ca489c53f347cf7500fef1e7c210bbbb894c8e416eacdd16df43db34ebf64736f6c63430008000033",
  "linkReferences": {},
  "deployedLinkReferences": {}
}