{
  "_format": "hh-sol-artifact-1",
  "contractName": "ProfileGraph",
  "sourceName": "contracts/ProfileGraph.sol",
  "abi": [
    {
      "anonymous": false,
      "inputs": [
        {
          "indexed": true,
          "internalType": "address",
          "name": "owner",
          "type": "address"
        },
        {
          "indexed": true,
          "internalType": "address",
          "name": "approved",
          "type": "address"
        },
        {
          "indexed": true,
          "internalType": "uint256",
          "name": "tokenId",
          "type": "uint256"
        }
      ],
      "name": "Approval",
      "type": "event"
    },
    {
      "anonymous": false,
      "inputs": [
        {
          "indexed": true,
          "internalType": "address",
          "name": "owner",
          "type": "address"
        },
        {
          "indexed": true,
          "internalType": "address",
          "name": "operator",
          "type": "address"
        },
        {
          "indexed": false,
          "internalType": "bool",
          "name": "approved",
          "type": "bool"
        }
      ],
      "name": "ApprovalForAll",
      "type": "event"
    },
    {
      "anonymous": false,
      "inputs": [
        {
          "indexed": false,
          "internalType": "uint256",
          "name": "follower",
          "type": "uint256"
        },
        {
          "indexed": false,
          "internalType": "uint256",
          "name": "followed",
          "type": "uint256"
        }
      ],
      "name": "Follow",
      "type": "event"
    },
    {
      "anonymous": false,
      "inputs": [
        {
          "indexed": false,
          "internalType": "uint256",
          "name": "tokenId",
          "type": "uint256"
        },
        {
          "indexed": false,
          "internalType": "address",
          "name": "owner",
          "type": "address"
        }
      ],
      "name": "NewProfile",
      "type": "event"
    },
    {
      "anonymous": false,
      "inputs": [
        {
          "indexed": true,
          "internalType": "address",
          "name": "previousOwner",
          "type": "address"
        },
        {
          "indexed": true,
          "internalType": "address",
          "name": "newOwner",
          "type": "address"
        }
      ],
      "name": "OwnershipTransferred",
      "type": "event"
    },
    {
      "anonymous": false,
      "inputs": [
        {
          "indexed": true,
          "internalType": "address",
          "name": "from",
          "type": "address"
        },
        {
          "indexed": true,
          "internalType": "address",
          "name": "to",
          "type": "address"
        },
        {
          "indexed": true,
          "internalType": "uint256",
          "name": "tokenId",
          "type": "uint256"
        }
      ],
      "name": "Transfer",
      "type": "event"
    },
    {
      "anonymous": false,
      "inputs": [
        {
          "indexed": false,
          "internalType": "uint256",
          "name": "follower",
          "type": "uint256"
        },
        {
          "indexed": false,
          "internalType": "uint256",
          "name": "unfollowed",
          "type": "uint256"
        }
      ],
      "name": "UnFollow",
      "type": "event"
    },
    {
      "inputs": [],
      "name": "_tokenIds",
      "outputs": [
        {
          "internalType": "uint256",
          "name": "_value",
          "type": "uint256"
        }
      ],
      "stateMutability": "view",
      "type": "function"
    },
    {
      "inputs": [
        {
          "internalType": "address",
          "name": "to",
          "type": "address"
        },
        {
          "internalType": "uint256",
          "name": "tokenId",
          "type": "uint256"
        }
      ],
      "name": "approve",
      "outputs": [],
      "stateMutability": "nonpayable",
      "type": "function"
    },
    {
      "inputs": [
        {
          "internalType": "address",
          "name": "owner",
          "type": "address"
        }
      ],
      "name": "balanceOf",
      "outputs": [
        {
          "internalType": "uint256",
          "name": "",
          "type": "uint256"
        }
      ],
      "stateMutability": "view",
      "type": "function"
    },
    {
      "inputs": [
        {
          "internalType": "uint256",
          "name": "toFollow",
          "type": "uint256"
        },
        {
          "internalType": "uint256",
          "name": "byFollower",
          "type": "uint256"
        }
      ],
      "name": "follow",
      "outputs": [],
      "stateMutability": "nonpayable",
      "type": "function"
    },
    {
      "inputs": [
        {
          "internalType": "uint256",
          "name": "tokenId",
          "type": "uint256"
        }
      ],
      "name": "getApproved",
      "outputs": [
        {
          "internalType": "address",
          "name": "",
          "type": "address"
        }
      ],
      "stateMutability": "view",
      "type": "function"
    },
    {
      "inputs": [
        {
          "internalType": "address",
          "name": "owner",
          "type": "address"
        },
        {
          "internalType": "address",
          "name": "operator",
          "type": "address"
        }
      ],
      "name": "isApprovedForAll",
      "outputs": [
        {
          "internalType": "bool",
          "name": "",
          "type": "bool"
        }
      ],
      "stateMutability": "view",
      "type": "function"
    },
    {
      "inputs": [
        {
          "internalType": "address",
          "name": "to",
          "type": "address"
        }
      ],
      "name": "mint",
      "outputs": [
        {
          "internalType": "uint256",
          "name": "",
          "type": "uint256"
        }
      ],
      "stateMutability": "nonpayable",
      "type": "function"
    },
    {
      "inputs": [],
      "name": "name",
      "outputs": [
        {
          "internalType": "string",
          "name": "",
          "type": "string"
        }
      ],
      "stateMutability": "view",
      "type": "function"
    },
    {
      "inputs": [],
      "name": "owner",
      "outputs": [
        {
          "internalType": "address",
          "name": "",
          "type": "address"
        }
      ],
      "stateMutability": "view",
      "type": "function"
    },
    {
      "inputs": [
        {
          "internalType": "uint256",
          "name": "tokenId",
          "type": "uint256"
        }
      ],
      "name": "ownerOf",
      "outputs": [
        {
          "internalType": "address",
          "name": "",
          "type": "address"
        }
      ],
      "stateMutability": "view",
      "type": "function"
    },
    {
      "inputs": [],
      "name": "renounceOwnership",
      "outputs": [],
      "stateMutability": "nonpayable",
      "type": "function"
    },
    {
      "inputs": [
        {
          "internalType": "address",
          "name": "from",
          "type": "address"
        },
        {
          "internalType": "address",
          "name": "to",
          "type": "address"
        },
        {
          "internalType": "uint256",
          "name": "tokenId",
          "type": "uint256"
        }
      ],
      "name": "safeTransferFrom",
      "outputs": [],
      "stateMutability": "nonpayable",
      "type": "function"
    },
    {
      "inputs": [
        {
          "internalType": "address",
          "name": "from",
          "type": "address"
        },
        {
          "internalType": "address",
          "name": "to",
          "type": "address"
        },
        {
          "internalType": "uint256",
          "name": "tokenId",
          "type": "uint256"
        },
        {
          "internalType": "bytes",
          "name": "_data",
          "type": "bytes"
        }
      ],
      "name": "safeTransferFrom",
      "outputs": [],
      "stateMutability": "nonpayable",
      "type": "function"
    },
    {
      "inputs": [
        {
          "internalType": "address",
          "name": "operator",
          "type": "address"
        },
        {
          "internalType": "bool",
          "name": "approved",
          "type": "bool"
        }
      ],
      "name": "setApprovalForAll",
      "outputs": [],
      "stateMutability": "nonpayable",
      "type": "function"
    },
    {
      "inputs": [
        {
          "internalType": "bytes4",
          "name": "interfaceId",
          "type": "bytes4"
        }
      ],
      "name": "supportsInterface",
      "outputs": [
        {
          "internalType": "bool",
          "name": "",
          "type": "bool"
        }
      ],
      "stateMutability": "view",
      "type": "function"
    },
    {
      "inputs": [],
      "name": "symbol",
      "outputs": [
        {
          "internalType": "string",
          "name": "",
          "type": "string"
        }
      ],
      "stateMutability": "view",
      "type": "function"
    },
    {
      "inputs": [
        {
          "internalType": "uint256",
          "name": "tokenId",
          "type": "uint256"
        }
      ],
      "name": "tokenURI",
      "outputs": [
        {
          "internalType": "string",
          "name": "",
          "type": "string"
        }
      ],
      "stateMutability": "view",
      "type": "function"
    },
    {
      "inputs": [
        {
          "internalType": "address",
          "name": "from",
          "type": "address"
        },
        {
          "internalType": "address",
          "name": "to",
          "type": "address"
        },
        {
          "internalType": "uint256",
          "name": "tokenId",
          "type": "uint256"
        }
      ],
      "name": "transferFrom",
      "outputs": [],
      "stateMutability": "nonpayable",
      "type": "function"
    },
    {
      "inputs": [
        {
          "internalType": "address",
          "name": "newOwner",
          "type": "address"
        }
      ],
      "name": "transferOwnership",
      "outputs": [],
      "stateMutability": "nonpayable",
      "type": "function"
    },
    {
      "inputs": [
        {
          "internalType": "uint256",
          "name": "toUnfollow",
          "type": "uint256"
        },
        {
          "internalType": "uint256",
          "name": "byFollower",
          "type": "uint256"
        }
      ],
      "name": "unfollow",
      "outputs": [],
      "stateMutability": "nonpayable",
      "type": "function"
    }
  ],
  "bytecode": "0x60806040523480156200001157600080fd5b506040518060400160405280600c81526020017f4e69667479436f6e6e65637400000000000000000000000000000000000000008152506040518060400160405280600481526020017f4e46544300000000000000000000000000000000000000000000000000000000815250816000908051906020019062000096929190620001a6565b508060019080519060200190620000af929190620001a6565b505050620000d2620000c6620000d860201b60201c565b620000e060201b60201c565b620002bb565b600033905090565b6000600660009054906101000a900473ffffffffffffffffffffffffffffffffffffffff16905081600660006101000a81548173ffffffffffffffffffffffffffffffffffffffff021916908373ffffffffffffffffffffffffffffffffffffffff1602179055508173ffffffffffffffffffffffffffffffffffffffff168173ffffffffffffffffffffffffffffffffffffffff167f8be0079c531659141344cd1fd0a4f28419497f9722a3daafe3b4186f6b6457e060405160405180910390a35050565b828054620001b49062000256565b90600052602060002090601f016020900481019282620001d8576000855562000224565b82601f10620001f357805160ff191683800117855562000224565b8280016001018555821562000224579182015b828111156200022357825182559160200191906001019062000206565b5b50905062000233919062000237565b5090565b5b808211156200025257600081600090555060010162000238565b5090565b600060028204905060018216806200026f57607f821691505b602082108114156200028657620002856200028c565b5b50919050565b7f4e487b7100000000000000000000000000000000000000000000000000000000600052602260045260246000fd5b612da280620002cb6000396000f3fe608060405234801561001057600080fd5b506004361061012c5760003560e01c8063821defc2116100ad578063b88d4fde11610071578063b88d4fde1461032f578063c87b56dd1461034b578063e985e9c51461037b578063f2fde38b146103ab578063fb1bf05d146103c75761012c565b8063821defc21461029d5780638da5cb5b146102b957806395d89b41146102d7578063a22cb465146102f5578063aa46a400146103115761012c565b806342842e0e116100f457806342842e0e146101e75780636352211e146102035780636a6278421461023357806370a0823114610263578063715018a6146102935761012c565b806301ffc9a71461013157806306fdde0314610161578063081812fc1461017f578063095ea7b3146101af57806323b872dd146101cb575b600080fd5b61014b60048036038101906101469190611e9e565b6103e3565b60405161015891906126b8565b60405180910390f35b6101696104c5565b60405161017691906126d3565b60405180910390f35b61019960048036038101906101949190611ef0565b610557565b6040516101a69190612651565b60405180910390f35b6101c960048036038101906101c49190611e62565b6105dc565b005b6101e560048036038101906101e09190611d5c565b6106f4565b005b61020160048036038101906101fc9190611d5c565b610754565b005b61021d60048036038101906102189190611ef0565b610774565b60405161022a9190612651565b60405180910390f35b61024d60048036038101906102489190611cf7565b610826565b60405161025a9190612915565b60405180910390f35b61027d60048036038101906102789190611cf7565b610937565b60405161028a9190612915565b60405180910390f35b61029b6109ef565b005b6102b760048036038101906102b29190611f19565b610a77565b005b6102c1610af6565b6040516102ce9190612651565b60405180910390f35b6102df610b20565b6040516102ec91906126d3565b60405180910390f35b61030f600480360381019061030a9190611e26565b610bb2565b005b610319610bc8565b6040516103269190612915565b60405180910390f35b61034960048036038101906103449190611dab565b610bd4565b005b61036560048036038101906103609190611ef0565b610c36565b60405161037291906126d3565b60405180910390f35b61039560048036038101906103909190611d20565b610cdd565b6040516103a291906126b8565b60405180910390f35b6103c560048036038101906103c09190611cf7565b610d71565b005b6103e160048036038101906103dc9190611f19565b610e69565b005b60007f80ac58cd000000000000000000000000000000000000000000000000000000007bffffffffffffffffffffffffffffffffffffffffffffffffffffffff1916827bffffffffffffffffffffffffffffffffffffffffffffffffffffffff191614806104ae57507f5b5e139f000000000000000000000000000000000000000000000000000000007bffffffffffffffffffffffffffffffffffffffffffffffffffffffff1916827bffffffffffffffffffffffffffffffffffffffffffffffffffffffff1916145b806104be57506104bd82610ee8565b5b9050919050565b6060600080546104d490612b97565b80601f016020809104026020016040519081016040528092919081815260200182805461050090612b97565b801561054d5780601f106105225761010080835404028352916020019161054d565b820191906000526020600020905b81548152906001019060200180831161053057829003601f168201915b5050505050905090565b600061056282610f52565b6105a1576040517f08c379a000000000000000000000000000000000000000000000000000000000815260040161059890612835565b60405180910390fd5b6004600083815260200190815260200160002060009054906101000a900473ffffffffffffffffffffffffffffffffffffffff169050919050565b60006105e782610774565b90508073ffffffffffffffffffffffffffffffffffffffff168373ffffffffffffffffffffffffffffffffffffffff161415610658576040517f08c379a000000000000000000000000000000000000000000000000000000000815260040161064f906128d5565b60405180910390fd5b8073ffffffffffffffffffffffffffffffffffffffff16610677610fbe565b73ffffffffffffffffffffffffffffffffffffffff1614806106a657506106a5816106a0610fbe565b610cdd565b5b6106e5576040517f08c379a00000000000000000000000000000000000000000000000000000000081526004016106dc906127b5565b60405180910390fd5b6106ef8383610fc6565b505050565b6107056106ff610fbe565b8261107f565b610744576040517f08c379a000000000000000000000000000000000000000000000000000000000815260040161073b906128f5565b60405180910390fd5b61074f83838361115d565b505050565b61076f83838360405180602001604052806000815250610bd4565b505050565b6000806002600084815260200190815260200160002060009054906101000a900473ffffffffffffffffffffffffffffffffffffffff169050600073ffffffffffffffffffffffffffffffffffffffff168173ffffffffffffffffffffffffffffffffffffffff16141561081d576040517f08c379a0000000000000000000000000000000000000000000000000000000008152600401610814906127f5565b60405180910390fd5b80915050919050565b6000610830610af6565b73ffffffffffffffffffffffffffffffffffffffff163373ffffffffffffffffffffffffffffffffffffffff16148061089457508173ffffffffffffffffffffffffffffffffffffffff163373ffffffffffffffffffffffffffffffffffffffff16145b6108d3576040517f08c379a00000000000000000000000000000000000000000000000000000000081526004016108ca906128b5565b60405180910390fd5b60006108df60076113b9565b90506108eb83826113c7565b7ff77721877cc609f5dfdedb32c3763b24fea3a928c62b5e2c5675cceb8f56c20c818460405161091c929190612930565b60405180910390a161092e60076113e5565b80915050919050565b60008073ffffffffffffffffffffffffffffffffffffffff168273ffffffffffffffffffffffffffffffffffffffff1614156109a8576040517f08c379a000000000000000000000000000000000000000000000000000000000815260040161099f906127d5565b60405180910390fd5b600360008373ffffffffffffffffffffffffffffffffffffffff1673ffffffffffffffffffffffffffffffffffffffff168152602001908152602001600020549050919050565b6109f7610fbe565b73ffffffffffffffffffffffffffffffffffffffff16610a15610af6565b73ffffffffffffffffffffffffffffffffffffffff1614610a6b576040517f08c379a0000000000000000000000000000000000000000000000000000000008152600401610a6290612855565b60405180910390fd5b610a7560006113fb565b565b80610a8181610774565b73ffffffffffffffffffffffffffffffffffffffff163373ffffffffffffffffffffffffffffffffffffffff1614610ab857600080fd5b7f16bdce19402ca7cda2d248f7d08b6942b5939bc270a9ec3fb323b113fea05b508284604051610ae9929190612959565b60405180910390a1505050565b6000600660009054906101000a900473ffffffffffffffffffffffffffffffffffffffff16905090565b606060018054610b2f90612b97565b80601f0160208091040260200160405190810160405280929190818152602001828054610b5b90612b97565b8015610ba85780601f10610b7d57610100808354040283529160200191610ba8565b820191906000526020600020905b815481529060010190602001808311610b8b57829003601f168201915b5050505050905090565b610bc4610bbd610fbe565b83836114c1565b5050565b60078060000154905081565b610be5610bdf610fbe565b8361107f565b610c24576040517f08c379a0000000000000000000000000000000000000000000000000000000008152600401610c1b906128f5565b60405180910390fd5b610c308484848461162e565b50505050565b6060610c4182610f52565b610c80576040517f08c379a0000000000000000000000000000000000000000000000000000000008152600401610c7790612895565b60405180910390fd5b6000610c8a61168a565b90506000815111610caa5760405180602001604052806000815250610cd5565b80610cb4846116a1565b604051602001610cc592919061262d565b6040516020818303038152906040525b915050919050565b6000600560008473ffffffffffffffffffffffffffffffffffffffff1673ffffffffffffffffffffffffffffffffffffffff16815260200190815260200160002060008373ffffffffffffffffffffffffffffffffffffffff1673ffffffffffffffffffffffffffffffffffffffff16815260200190815260200160002060009054906101000a900460ff16905092915050565b610d79610fbe565b73ffffffffffffffffffffffffffffffffffffffff16610d97610af6565b73ffffffffffffffffffffffffffffffffffffffff1614610ded576040517f08c379a0000000000000000000000000000000000000000000000000000000008152600401610de490612855565b60405180910390fd5b600073ffffffffffffffffffffffffffffffffffffffff168173ffffffffffffffffffffffffffffffffffffffff161415610e5d576040517f08c379a0000000000000000000000000000000000000000000000000000000008152600401610e5490612715565b60405180910390fd5b610e66816113fb565b50565b80610e7381610774565b73ffffffffffffffffffffffffffffffffffffffff163373ffffffffffffffffffffffffffffffffffffffff1614610eaa57600080fd5b7f4ffaf1cf35d56ff9525d8610b0c5edae72544ec84c192436933523786d61dfa48284604051610edb929190612959565b60405180910390a1505050565b60007f01ffc9a7000000000000000000000000000000000000000000000000000000007bffffffffffffffffffffffffffffffffffffffffffffffffffffffff1916827bffffffffffffffffffffffffffffffffffffffffffffffffffffffff1916149050919050565b60008073ffffffffffffffffffffffffffffffffffffffff166002600084815260200190815260200160002060009054906101000a900473ffffffffffffffffffffffffffffffffffffffff1673ffffffffffffffffffffffffffffffffffffffff1614159050919050565b600033905090565b816004600083815260200190815260200160002060006101000a81548173ffffffffffffffffffffffffffffffffffffffff021916908373ffffffffffffffffffffffffffffffffffffffff160217905550808273ffffffffffffffffffffffffffffffffffffffff1661103983610774565b73ffffffffffffffffffffffffffffffffffffffff167f8c5be1e5ebec7d5bd14f71427d1e84f3dd0314c0f7b2291e5b200ac8c7c3b92560405160405180910390a45050565b600061108a82610f52565b6110c9576040517f08c379a00000000000000000000000000000000000000000000000000000000081526004016110c090612795565b60405180910390fd5b60006110d483610774565b90508073ffffffffffffffffffffffffffffffffffffffff168473ffffffffffffffffffffffffffffffffffffffff16148061114357508373ffffffffffffffffffffffffffffffffffffffff1661112b84610557565b73ffffffffffffffffffffffffffffffffffffffff16145b8061115457506111538185610cdd565b5b91505092915050565b8273ffffffffffffffffffffffffffffffffffffffff1661117d82610774565b73ffffffffffffffffffffffffffffffffffffffff16146111d3576040517f08c379a00000000000000000000000000000000000000000000000000000000081526004016111ca90612875565b60405180910390fd5b600073ffffffffffffffffffffffffffffffffffffffff168273ffffffffffffffffffffffffffffffffffffffff161415611243576040517f08c379a000000000000000000000000000000000000000000000000000000000815260040161123a90612755565b60405180910390fd5b61124e83838361184e565b611259600082610fc6565b6001600360008573ffffffffffffffffffffffffffffffffffffffff1673ffffffffffffffffffffffffffffffffffffffff16815260200190815260200160002060008282546112a99190612aad565b925050819055506001600360008473ffffffffffffffffffffffffffffffffffffffff1673ffffffffffffffffffffffffffffffffffffffff16815260200190815260200160002060008282546113009190612a26565b92505081905550816002600083815260200190815260200160002060006101000a81548173ffffffffffffffffffffffffffffffffffffffff021916908373ffffffffffffffffffffffffffffffffffffffff160217905550808273ffffffffffffffffffffffffffffffffffffffff168473ffffffffffffffffffffffffffffffffffffffff167fddf252ad1be2c89b69c2b068fc378daa952ba7f163c4a11628f55a4df523b3ef60405160405180910390a4505050565b600081600001549050919050565b6113e1828260405180602001604052806000815250611853565b5050565b6001816000016000828254019250508190555050565b6000600660009054906101000a900473ffffffffffffffffffffffffffffffffffffffff16905081600660006101000a81548173ffffffffffffffffffffffffffffffffffffffff021916908373ffffffffffffffffffffffffffffffffffffffff1602179055508173ffffffffffffffffffffffffffffffffffffffff168173ffffffffffffffffffffffffffffffffffffffff167f8be0079c531659141344cd1fd0a4f28419497f9722a3daafe3b4186f6b6457e060405160405180910390a35050565b8173ffffffffffffffffffffffffffffffffffffffff168373ffffffffffffffffffffffffffffffffffffffff161415611530576040517f08c379a000000000000000000000000000000000000000000000000000000000815260040161152790612775565b60405180910390fd5b80600560008573ffffffffffffffffffffffffffffffffffffffff1673ffffffffffffffffffffffffffffffffffffffff16815260200190815260200160002060008473ffffffffffffffffffffffffffffffffffffffff1673ffffffffffffffffffffffffffffffffffffffff16815260200190815260200160002060006101000a81548160ff0219169083151502179055508173ffffffffffffffffffffffffffffffffffffffff168373ffffffffffffffffffffffffffffffffffffffff167f17307eab39ab6107e8899845ad3d59bd9653f200f220920489ca2b5937696c318360405161162191906126b8565b60405180910390a3505050565b61163984848461115d565b611645848484846118ae565b611684576040517f08c379a000000000000000000000000000000000000000000000000000000000815260040161167b906126f5565b60405180910390fd5b50505050565b606060405180602001604052806000815250905090565b606060008214156116e9576040518060400160405280600181526020017f30000000000000000000000000000000000000000000000000000000000000008152509050611849565b600082905060005b6000821461171b57808061170490612bc9565b915050600a826117149190612a7c565b91506116f1565b60008167ffffffffffffffff81111561175d577f4e487b7100000000000000000000000000000000000000000000000000000000600052604160045260246000fd5b6040519080825280601f01601f19166020018201604052801561178f5781602001600182028036833780820191505090505b5090505b60008514611842576001826117a89190612aad565b9150600a856117b79190612c12565b60306117c39190612a26565b60f81b8183815181106117ff577f4e487b7100000000000000000000000000000000000000000000000000000000600052603260045260246000fd5b60200101907effffffffffffffffffffffffffffffffffffffffffffffffffffffffffffff1916908160001a905350600a8561183b9190612a7c565b9450611793565b8093505050505b919050565b505050565b61185d8383611a45565b61186a60008484846118ae565b6118a9576040517f08c379a00000000000000000000000000000000000000000000000000000000081526004016118a0906126f5565b60405180910390fd5b505050565b60006118cf8473ffffffffffffffffffffffffffffffffffffffff16611c13565b15611a38578373ffffffffffffffffffffffffffffffffffffffff1663150b7a026118f8610fbe565b8786866040518563ffffffff1660e01b815260040161191a949392919061266c565b602060405180830381600087803b15801561193457600080fd5b505af192505050801561196557506040513d601f19601f820116820180604052508101906119629190611ec7565b60015b6119e8573d8060008114611995576040519150601f19603f3d011682016040523d82523d6000602084013e61199a565b606091505b506000815114156119e0576040517f08c379a00000000000000000000000000000000000000000000000000000000081526004016119d7906126f5565b60405180910390fd5b805181602001fd5b63150b7a0260e01b7bffffffffffffffffffffffffffffffffffffffffffffffffffffffff1916817bffffffffffffffffffffffffffffffffffffffffffffffffffffffff191614915050611a3d565b600190505b949350505050565b600073ffffffffffffffffffffffffffffffffffffffff168273ffffffffffffffffffffffffffffffffffffffff161415611ab5576040517f08c379a0000000000000000000000000000000000000000000000000000000008152600401611aac90612815565b60405180910390fd5b611abe81610f52565b15611afe576040517f08c379a0000000000000000000000000000000000000000000000000000000008152600401611af590612735565b60405180910390fd5b611b0a6000838361184e565b6001600360008473ffffffffffffffffffffffffffffffffffffffff1673ffffffffffffffffffffffffffffffffffffffff1681526020019081526020016000206000828254611b5a9190612a26565b92505081905550816002600083815260200190815260200160002060006101000a81548173ffffffffffffffffffffffffffffffffffffffff021916908373ffffffffffffffffffffffffffffffffffffffff160217905550808273ffffffffffffffffffffffffffffffffffffffff16600073ffffffffffffffffffffffffffffffffffffffff167fddf252ad1be2c89b69c2b068fc378daa952ba7f163c4a11628f55a4df523b3ef60405160405180910390a45050565b600080823b905060008111915050919050565b6000611c39611c34846129b3565b612982565b905082815260208101848484011115611c5157600080fd5b611c5c848285612b55565b509392505050565b600081359050611c7381612d10565b92915050565b600081359050611c8881612d27565b92915050565b600081359050611c9d81612d3e565b92915050565b600081519050611cb281612d3e565b92915050565b600082601f830112611cc957600080fd5b8135611cd9848260208601611c26565b91505092915050565b600081359050611cf181612d55565b92915050565b600060208284031215611d0957600080fd5b6000611d1784828501611c64565b91505092915050565b60008060408385031215611d3357600080fd5b6000611d4185828601611c64565b9250506020611d5285828601611c64565b9150509250929050565b600080600060608486031215611d7157600080fd5b6000611d7f86828701611c64565b9350506020611d9086828701611c64565b9250506040611da186828701611ce2565b9150509250925092565b60008060008060808587031215611dc157600080fd5b6000611dcf87828801611c64565b9450506020611de087828801611c64565b9350506040611df187828801611ce2565b925050606085013567ffffffffffffffff811115611e0e57600080fd5b611e1a87828801611cb8565b91505092959194509250565b60008060408385031215611e3957600080fd5b6000611e4785828601611c64565b9250506020611e5885828601611c79565b9150509250929050565b60008060408385031215611e7557600080fd5b6000611e8385828601611c64565b9250506020611e9485828601611ce2565b9150509250929050565b600060208284031215611eb057600080fd5b6000611ebe84828501611c8e565b91505092915050565b600060208284031215611ed957600080fd5b6000611ee784828501611ca3565b91505092915050565b600060208284031215611f0257600080fd5b6000611f1084828501611ce2565b91505092915050565b60008060408385031215611f2c57600080fd5b6000611f3a85828601611ce2565b9250506020611f4b85828601611ce2565b9150509250929050565b611f5e81612ae1565b82525050565b611f6d81612af3565b82525050565b6000611f7e826129e3565b611f8881856129f9565b9350611f98818560208601612b64565b611fa181612cff565b840191505092915050565b6000611fb7826129ee565b611fc18185612a0a565b9350611fd1818560208601612b64565b611fda81612cff565b840191505092915050565b6000611ff0826129ee565b611ffa8185612a1b565b935061200a818560208601612b64565b80840191505092915050565b6000612023603283612a0a565b91507f4552433732313a207472616e7366657220746f206e6f6e20455243373231526560008301527f63656976657220696d706c656d656e74657200000000000000000000000000006020830152604082019050919050565b6000612089602683612a0a565b91507f4f776e61626c653a206e6577206f776e657220697320746865207a65726f206160008301527f64647265737300000000000000000000000000000000000000000000000000006020830152604082019050919050565b60006120ef601c83612a0a565b91507f4552433732313a20746f6b656e20616c7265616479206d696e746564000000006000830152602082019050919050565b600061212f602483612a0a565b91507f4552433732313a207472616e7366657220746f20746865207a65726f2061646460008301527f72657373000000000000000000000000000000000000000000000000000000006020830152604082019050919050565b6000612195601983612a0a565b91507f4552433732313a20617070726f766520746f2063616c6c6572000000000000006000830152602082019050919050565b60006121d5602c83612a0a565b91507f4552433732313a206f70657261746f7220717565727920666f72206e6f6e657860008301527f697374656e7420746f6b656e00000000000000000000000000000000000000006020830152604082019050919050565b600061223b603883612a0a565b91507f4552433732313a20617070726f76652063616c6c6572206973206e6f74206f7760008301527f6e6572206e6f7220617070726f76656420666f7220616c6c00000000000000006020830152604082019050919050565b60006122a1602a83612a0a565b91507f4552433732313a2062616c616e636520717565727920666f7220746865207a6560008301527f726f2061646472657373000000000000000000000000000000000000000000006020830152604082019050919050565b6000612307602983612a0a565b91507f4552433732313a206f776e657220717565727920666f72206e6f6e657869737460008301527f656e7420746f6b656e00000000000000000000000000000000000000000000006020830152604082019050919050565b600061236d602083612a0a565b91507f4552433732313a206d696e7420746f20746865207a65726f20616464726573736000830152602082019050919050565b60006123ad602c83612a0a565b91507f4552433732313a20617070726f76656420717565727920666f72206e6f6e657860008301527f697374656e7420746f6b656e00000000000000000000000000000000000000006020830152604082019050919050565b6000612413602083612a0a565b91507f4f776e61626c653a2063616c6c6572206973206e6f7420746865206f776e65726000830152602082019050919050565b6000612453602983612a0a565b91507f4552433732313a207472616e73666572206f6620746f6b656e2074686174206960008301527f73206e6f74206f776e00000000000000000000000000000000000000000000006020830152604082019050919050565b60006124b9602f83612a0a565b91507f4552433732314d657461646174613a2055524920717565727920666f72206e6f60008301527f6e6578697374656e7420746f6b656e00000000000000000000000000000000006020830152604082019050919050565b600061251f601083612a0a565b91507f6d696e74206e6f7420616c6c6f776564000000000000000000000000000000006000830152602082019050919050565b600061255f602183612a0a565b91507f4552433732313a20617070726f76616c20746f2063757272656e74206f776e6560008301527f72000000000000000000000000000000000000000000000000000000000000006020830152604082019050919050565b60006125c5603183612a0a565b91507f4552433732313a207472616e736665722063616c6c6572206973206e6f74206f60008301527f776e6572206e6f7220617070726f7665640000000000000000000000000000006020830152604082019050919050565b61262781612b4b565b82525050565b60006126398285611fe5565b91506126458284611fe5565b91508190509392505050565b60006020820190506126666000830184611f55565b92915050565b60006080820190506126816000830187611f55565b61268e6020830186611f55565b61269b604083018561261e565b81810360608301526126ad8184611f73565b905095945050505050565b60006020820190506126cd6000830184611f64565b92915050565b600060208201905081810360008301526126ed8184611fac565b905092915050565b6000602082019050818103600083015261270e81612016565b9050919050565b6000602082019050818103600083015261272e8161207c565b9050919050565b6000602082019050818103600083015261274e816120e2565b9050919050565b6000602082019050818103600083015261276e81612122565b9050919050565b6000602082019050818103600083015261278e81612188565b9050919050565b600060208201905081810360008301526127ae816121c8565b9050919050565b600060208201905081810360008301526127ce8161222e565b9050919050565b600060208201905081810360008301526127ee81612294565b9050919050565b6000602082019050818103600083015261280e816122fa565b9050919050565b6000602082019050818103600083015261282e81612360565b9050919050565b6000602082019050818103600083015261284e816123a0565b9050919050565b6000602082019050818103600083015261286e81612406565b9050919050565b6000602082019050818103600083015261288e81612446565b9050919050565b600060208201905081810360008301526128ae816124ac565b9050919050565b600060208201905081810360008301526128ce81612512565b9050919050565b600060208201905081810360008301526128ee81612552565b9050919050565b6000602082019050818103600083015261290e816125b8565b9050919050565b600060208201905061292a600083018461261e565b92915050565b6000604082019050612945600083018561261e565b6129526020830184611f55565b9392505050565b600060408201905061296e600083018561261e565b61297b602083018461261e565b9392505050565b6000604051905081810181811067ffffffffffffffff821117156129a9576129a8612cd0565b5b8060405250919050565b600067ffffffffffffffff8211156129ce576129cd612cd0565b5b601f19601f8301169050602081019050919050565b600081519050919050565b600081519050919050565b600082825260208201905092915050565b600082825260208201905092915050565b600081905092915050565b6000612a3182612b4b565b9150612a3c83612b4b565b9250827fffffffffffffffffffffffffffffffffffffffffffffffffffffffffffffffff03821115612a7157612a70612c43565b5b828201905092915050565b6000612a8782612b4b565b9150612a9283612b4b565b925082612aa257612aa1612c72565b5b828204905092915050565b6000612ab882612b4b565b9150612ac383612b4b565b925082821015612ad657612ad5612c43565b5b828203905092915050565b6000612aec82612b2b565b9050919050565b60008115159050919050565b60007fffffffff0000000000000000000000000000000000000000000000000000000082169050919050565b600073ffffffffffffffffffffffffffffffffffffffff82169050919050565b6000819050919050565b82818337600083830152505050565b60005b83811015612b82578082015181840152602081019050612b67565b83811115612b91576000848401525b50505050565b60006002820490506001821680612baf57607f821691505b60208210811415612bc357612bc2612ca1565b5b50919050565b6000612bd482612b4b565b91507fffffffffffffffffffffffffffffffffffffffffffffffffffffffffffffffff821415612c0757612c06612c43565b5b600182019050919050565b6000612c1d82612b4b565b9150612c2883612b4b565b925082612c3857612c37612c72565b5b828206905092915050565b7f4e487b7100000000000000000000000000000000000000000000000000000000600052601160045260246000fd5b7f4e487b7100000000000000000000000000000000000000000000000000000000600052601260045260246000fd5b7f4e487b7100000000000000000000000000000000000000000000000000000000600052602260045260246000fd5b7f4e487b7100000000000000000000000000000000000000000000000000000000600052604160045260246000fd5b6000601f19601f8301169050919050565b612d1981612ae1565b8114612d2457600080fd5b50565b612d3081612af3565b8114612d3b57600080fd5b50565b612d4781612aff565b8114612d5257600080fd5b50565b612d5e81612b4b565b8114612d6957600080fd5b5056fea2646970667358221220d7e0f1335b5f9421993110d93853def202559eb7bcefae77881eab0b5fbe299464736f6c63430008000033",
  "linkReferences": {},
  "deployedLinkReferences": {}
}